:020000040800F2
:10000000D8290020650100086D0100086F01000873
:10001000710100087301000875010008000000006C
:100020000000000000000000000000007701000850
:1000300079010008000000007B0100087D01000834
:100040007F0100087F0100087F0100087F01000890
:100050007F0100087F0100087F0100087F01000880
:100060007F0100087F0100087F0100087F01000870
:100070007F0100087F0100087F0100087F01000860
:100080007F0100087F0100087F0100087F01000850
:100090007F0100087F0100087F0100087F01000840
:1000A0007F0100087F0100087F0100087F01000830
:1000B000751B00087F0100087F0100087F01000810
:1000C0007F0100087F0100087F0100087F01000810
:1000D0007F010008CD1F00087F0100087F01000894
:1000E0007F0100087F0100087F0100087F010008F0
:1000F0007F0100087F0100087F0100087F010008E0
:100100007F0100087F0100087F010008851B0008AF
:100110007F0100087F0100087F0100087F010008BF
:100120007F0100087F0100087F0100087F010008AF
:100130007F0100087F0100087F0100087F0100089F
:100140007F0100087F010008DFF80CD000F09AFB67
:10015000004800475D2F0008D829002080F3088858
:10016000704700000648804706480047FEE7FEE764
:10017000FEE7FEE7FEE7FEE7FEE7FEE7FEE7FEE757
:10018000D91A000849010008D2B201E000F8012B99
:10019000491EFBD270470022F6E710B513460A4607
:1001A00004461946FFF7F0FF204610BD30B505465E
:1001B0002A460B4612F8010B13F8014B08B1A04276
:1001C000F8D01CB1002802D06D1CF1E7284630BDE4
:1001D00070B5064602F022F8046805460A2200219E
:1001E000304600F04DF92C6070BD2DE9FE4F804681
:1001F00081EA0300C00F0C46009021F0004123F07B
:100200000045B8EB0200A94105D240462146904680
:100210001C460B46024623F00040104347D0270DF2
:10022000C7F30A00C3F30A510290401A0190402814
:100230006BDAC3F3130040F4801B0098924620B1A0
:100240000023D2EB030A63EB0B0B01985946C0F174
:100250004002504600F0E3F806460D465046594627
:10026000019A00F0FBF810EB08006141002487EAD6
:10027000115284EAE7731A4340D0009A62B3019A9C
:10028000012A4FEA075215DC001B61EB02014FF017
:10029000004202EA0752CDE90042001C41F58011FC
:1002A00032462B4600F033F903B0BDE8F08F4046EC
:1002B0002146F9E7001B61EB0201001C41F58013A8
:1002C00000185B412018A2F5001747EB030140EA34
:1002D000D570B6196D4111E06D084FEA360645EA52
:1002E000C0754FEA0752001B61EB0201001C41F58B
:1002F000801149084FEA30000019514132462B461F
:1003000003B0BDE8F04F00F0F3B8009801224000C0
:100310000023D0EB020263EBE073009821464FEA22
:10032000E074B8EB000061EB0401E9E783F00043FF
:100330005BE781F0004158E70EB540F2334102918E
:100340000021CDE900110A460B4600F0E0F803B0A9
:1003500000BD70B5C1F30A5201F000450024C1F39D
:10036000130140F2FF3341F480119A4201DA002078
:1003700070BD40F233439A42A2F2334203DC524250
:1003800000F05CF800E090402C43F1D0404270BD9A
:1003900030B50B46014600202022012409E021FA55
:1003A00002F59D4205D303FA02F5491B04FA02F552
:1003B0002844151EA2F10102F1DC30BD2DE9F05FE9
:1003C0000546002092469B468846064681464024C4
:1003D0001BE0284641464746224600F02FF8534688
:1003E0005A46C01A914110D311461846224600F0D1
:1003F00016F82D1A67EB01084F462246012000210E
:1004000000F00DF817EB00094E41201EA4F1010485
:10041000DFDC484631462A464346BDE8F09F202AA5
:1004200004DB203A00FA02F1002070479140C2F14B
:10043000200320FA03F3194390407047202A04DB7D
:10044000203A21FA02F00021704721FA02F3D0404D
:10045000C2F120029140084319467047202A06DB6A
:10046000CB17203A41FA02F043EAE07306E041FA82
:1004700002F3D040C2F12002914008431946704770
:100480002DE9F04791460F4680460446002614F8B1
:10049000015B2DB100F008FA0068405DC007F6D19D
:1004A0002B2D02D02D2D18D0641E4A4639462046E9
:1004B00000F0FEF927B13968A14201D1C7F80080E8
:1004C00071054FF002040BD54042002803DD01F016
:1004D000A5FE0460A007BDE8F08746F48066E4E767
:1004E0000028F8DA01F09AFE04606FF00040F2E7AD
:1004F00010B5141E73F1000408DA401C41F100012C
:1005000092185B411A4301D120F0010010BD2DE982
:10051000F04D92469B4611B1B1FA81F202E0B0FA79
:1005200080F220329046FFF77AFF04460F4640EAF9
:100530000A0041EA0B0153465A46084313D01146BC
:1005400053EA010019D0C8F140025046FFF776FF88
:1005500005460E46504659464246FFF760FF08439F
:1005600005D0012004E020463946BDE8F08D00208A
:10057000054346EAE0762C4337430A986305E40ACC
:10058000A0EB08000022FD0A44EA47540A3002D5D5
:1005900000200146E9E7010510196941DDE9084538
:1005A00000196941BDE8F04DA2E72DE9FE4F81EA4F
:1005B000030404F0004421F0004100944FF0000BCC
:1005C00023F0004350EA01045ED052EA03045BD0FA
:1005D000C3F30A54C1F30A552C44A4F2F334019432
:1005E000A0FB0254C1F3130141F48011C3F31303C0
:1005F00043F4801301FB024400FB034E840A970A74
:1006000044EA815447EA8357A4FB076802958D0AA0
:1006100005FB07854FEA932C04FB0C542705029D2C
:100620004FEA065847EA1637B5EB08056EEB070C9C
:10063000870E920E47EA811742EA8312A7FB020156
:10064000B6EB0B0164EB00042B0D43EA0C335E1890
:1006500044EB1C50DA465146E7FB0201C5F3130494
:100660004FEA0B3343EA14534FEA0432019C43EA46
:100670000603A4F10C040294009CCDE900B4FFF73A
:1006800046FF03B0BDE8F08F00200146F9E72DE9F1
:10069000F04D81EA030404F0004B21F000451446BC
:1006A0004FF0000A23F0004150EA050220D054EA3E
:1006B00001021DD0C5F30A570246C5F31303C1F367
:1006C0001300C1F30A5640F4801543F48013A7EBDE
:1006D0000608101BD64608F2FD3873EB050002D35E
:1006E00008F1010801E092185B41B8F1000F03DA4C
:1006F00000200146BDE8F08D00204FF48011064631
:1007000084460EE0171B73EB050705D3121B63EB42
:10071000050306434CEA010C49084FEA30009218E1
:100720005B4150EA0107EDD152EA030012D082EAA0
:10073000040083EA0501084305D0101BAB4106D233
:100740000122002306E000224FF0004302E06FF098
:10075000010253101AEB06004CEB085110EB0A0093
:1007600041EB0B01BDE8F04DFFF7C2BE2DE9F041B2
:10077000054621F000400C46284309D0C4F30A5036
:1007800040F23341884205DD28462146BDE8F0812C
:100790002846FBE740F2FE31884210DC0CDB4FEAD2
:1007A000043040EA155050EA053105D0104804F0F5
:1007B000004101430020E9E700200146E6E7A0F2FE
:1007C00033404642C6F1400228462146FFF727FE45
:1007D00007468846284621463246FFF72FFE434605
:1007E0003A46FFF785FE3246BDE8F041FFF717BEF7
:1007F0000000F03FC1F30A52C1F3130140F2FF338E
:1008000041F480119A4202DA00200146704740F21A
:1008100033439A42A2F2334202DC5242FFF70EBE49
:10082000FFF7FDBD30B5041E71F1000404DB4FF08D
:100830000044404264EB0101141E73F1000405DB27
:100840001C464FF00043524263EB04038B4208BF47
:10085000824230BD30B5041E71F1000404DB4FF05C
:100860000044404264EB0101141E73F1000405DBF7
:100870001C464FF00043524263EB0403994208BF09
:10088000904230BD064C074D06E0E06840F00103A1
:1008900094E8070098471034AC42F6D3FFF758FCB1
:1008A0003037000850370008004870472C370008E0
:1008B0002DE9F05F82460078002715468B460AF145
:1008C0000104B946302801D09DB113E014F8010BA2
:1008D0000127782803D0582801D045B10AE00DB18E
:1008E000102D07D10027102514F8010B02E0082570
:1008F00000E00A250026B0460EE005FB080005FBD7
:1009000006F1012701EB10461FFA80F8B6F5803F8B
:1009100000D3B94614F8010B294600F018F8002856
:10092000EBDABBF1000F05D00FB1641E00E05446B6
:10093000CBF80040B9F1000F06D001F06FFC0221A6
:100940000160C81EBDE8F09F48EA0640FAE73A2871
:1009500000D2303820F02002412A01D3A2F1370022
:10096000884201D34FF0FF307047000000EB400099
:1009700040000A21B0FBF1F0044910F0FF000880AC
:10098000034900D01E20088070470000400400404A
:10099000400800402DE9F04105460F4888461746BB
:1009A00041690024490603D4416941F04001416195
:1009B0000A4E0120B06007E055F8240007B100BAE4
:1009C00002F01AFB3060641C4445F5D3306802F035
:1009D00013FBC043BDE8F08100100240003002402C
:1009E00010B540F23B410748FFF7D5FB012240F22A
:1009F0002551054801F00CFB0449002008800449FA
:100A0000087010BD4408002000380140100000208C
:100A10000C0000200249CA680243CA607047000007
:100A20000020024018B50E4A002000901168890786
:100A300014D4116841F0010111604FF4A0641168F1
:100A4000009BC1F340015B1C009309B9A342F6D19E
:100A50001168C1F34001002900D1012018BD000038
:100A60000010024070B505467C20FFF7D3FF4FF41D
:100A70003026304600F0B0F8062811D1094C206924
:100A800040F0020020616561206940F04000206173
:100A9000304600F0A1F8216943F6FD721140216152
:100AA00070BD00000020024070B5054600F088F8D7
:100AB000114828180AD0B0F5006F09D0B0F5604F82
:100AC00006D001266FF30A0500240EE00126FBE79D
:100AD0001B26F9E705EBC420FFF7C4FF062803D067
:100AE00000F036F8012070BD641CB442F2D300F06F
:100AF0002FF8002070BD000000B8FFF70D49062058
:100B0000CA68D20701D001207047CA68520701D5D0
:100B100003207047CA68120701D504207047CA68CD
:100B2000D20601D505207047C9684906FBD50720C4
:100B3000704700000020024010B5FFF773FF00F07F
:100B40003FF87C20FFF766FFBDE81040AFF3008060
:100B50000248016941F080010161704700200240B4
:100B6000F8B50546002000900E46A80701D00920E0
:100B7000F8BD7C20FFF74EFF4FF40057384600F0D9
:100B80002BF80628F4D1074C206940F001002061C1
:100B90002E60384600F020F8216943F6FE721140BD
:100BA0002161F8BD0020024010B5002303E010C809
:100BB00041F823405B1C9342F9DB002010BD00008C
:100BC000034802494160034941607047230167457A
:100BD00000200240AB89EFCD00B50346FFF78EFF42
:100BE00002E0FFF78BFF5B1E012803D0002B00D132
:100BF0000A2000BD002BF4D1FAE700002DE9FC5FCC
:100C0000A0F1006491460F46B4F5003F02D30220E4
:100C1000BDE8FC9F4FF0000BFFF7D2FF4FEAD42A4C
:100C2000C4F38806C6F500744846A14500D80446BA
:100C30004FF0006000EBCA2005464FF400723A49BD
:100C4000FFF7B2FF0020DFF8E08005E0311858F828
:100C50002110491C02D1401CA042F7D3A04233D23C
:100C60002846FFF7FFFE062801D0012022E00020E1
:100C700005E057F820103218401C48F82210A04216
:100C8000F7D30025301901904FEACA20009014E0F4
:100C9000009858F8251000EB850606F100663046EE
:100CA000FFF75EFF062804D1306858F82510884207
:100CB00002D00220834632E06D1C0198A842E7D89A
:100CC000BBF1000F2BD11BE04FEACA20002500EB3F
:100CD000860813E008EB850606F1006657F8251034
:100CE0003046FFF73DFF062804D1306857F825103D
:100CF000884202D04FF0020B02E06D1CA542E9D3FE
:100D0000A1450CD0A9EB040007EB840700264FF4A3
:100D100000740AF1010A8146A04289D887E7FFF7EB
:100D200017FF584674E70000440000202DE9F04FFB
:100D3000DFF84891002309F1040A0AF1040B4FF08F
:100D40000F0C4FF003080BF1040E90E001229A40C3
:100D500014427DD08D685C00022D04D0122D02D08B
:100D60000DB1032D16D11D070AD5466A5D07ED0E9C
:100D70000CFA05F7BE43CF68AF403743476209E03E
:100D8000066A5D07ED0E0CFA05F7BE43CF68AF406B
:100D90003743076207680D7A05F00F0608FA04F575
:100DA000AF43A6403E430660C7680E79AF4306F0E6
:100DB0000306A6403E43C6608E68B70709D0032EDF
:100DC00007D0C76A8E78AF4306F00306A6403E43BD
:100DD000C6628468CD78944305F001059D402543A3
:100DE00085600C79022C02D0012C04D006E0846AC4
:100DF0001443846202E08469144384618C68012C8A
:100E000005D0022C03D0112C01D0122C06D145683C
:100E1000C4F3001495439C402C4344608D68EC005F
:100E200024D5D9F800404E469443ED0300D5144331
:100E30003460DAF8004055468E689443B60300D516
:100E400014432C60DBF800405D4694438E6800E05C
:100E50000CE0F60200D514432C60DEF80040754625
:100E60008E689443B60200D514432C605B1C0C883A
:100E700034FA03F27FF46AAFBDE8F08F000401405A
:100E80004FF6FF7101800021C1700F22C0E90212EC
:100E900001718170704772B6704700002DE9F0470C
:100EA00086B00025022000F021FB4FF0800A0123CC
:100EB00056A204212B20CDF800A000F0E1FBFFF7A3
:100EC0003BFE4FF48067A946524E00E035B9002042
:100ED00000F012F90E2814D0DFF83C8198F80000D9
:100EE0000028F3D04D480088B8425FD24CA14E484C
:100EF000FFF75CF968B10125FFF772FD05214BA0F2
:100F000051E04CA001F068F906B0BDE8F047FFF7EA
:100F100067BD4EA14448FFF749F9E0B3CDF804900E
:100F2000CDF808905520CDE903904A4E07250024BE
:100F300000963046FFF7B8FD012204A93046FFF7BE
:100F40005DFE394901AA04E06D1C1055641CEDB228
:100F5000E4B2485D0A28F7D11046FFF739F904904A
:100F6000642001F023FF012204A93B48FFF746FE5D
:100F7000FFF736FD022139A001F02EF9012339A235
:100F800004212520CDF800A000F07AFB4FF47A7000
:100F900001F00CFF00E001E001F02EF90025FFF761
:100FA0001FFD062132A001F017F98FE77068411C80
:100FB000716000F0CBFFA0F57F410446FF390BD0F4
:100FC000BC4202D3706802281BDBE00700D0641C1F
:100FD0007068022808D009E07068401E7060FFF752
:100FE000FFFC052125A0DEE704F58064A208254961
:100FF0003068FFF703FE00B1FEE730682044C6E921
:101000000009FFF7EDFC04211FA0CCE750524F4729
:1010100052414D00300000200C0000201000002044
:101020004C696E654B4455004408002025635265A9
:1010300061647900E4B88DE58D87E7BAA7EFBC8CD1
:10104000E98080E587BA5C6E00000000456E64664A
:10105000696C6500004800080049000825634F4B93
:1010600000000000555047524144494E47000000DF
:101070002563554E4B4E4F570000000025634167D6
:1010800061696E00D40C002025634E657874000001
:101090001FB50121042000F035FC0121082000F0DB
:1010A00031FC0121102000F02DFC6846FFF7E8FE1E
:1010B000002002908DF803000121DF208DF804103C
:1010C000ADF8000069460948FFF730FE4CF2F90020
:1010D000ADF8000069460648FFF728FE7F20ADF80E
:1010E000000069460348FFF721FE1FBD00080140CC
:1010F000000C0140001001402DE9F041C94FCA4DDC
:10110000CA4ECB4C012108B1397001E03878E8B300
:10111000286810F0080028607ED0286810F01000C1
:10112000286079D0286810F02000286074D02868E2
:1011300010F0400028606FD0286810F08000286010
:101140006AD0286810F00100286065D0306910F07E
:101150002000306160D0306910F0100030615BD049
:10116000206810F08000206056D0206810F0400009
:10117000206051D0306910F0010030614CD02068FF
:1011800010F01000206047D0286800E026E010F43E
:101190000040286040D0206810F0080020603BD05C
:1011A000306910F00200306136D0306910F0040070
:1011B00030617DD0306910F00800306178D020684F
:1011C00010F00200206073D0206810F0040020604E
:1011D0006ED0206810F00100206069D0286810F0FF
:1011E0000800286061D0286810F0100028605CD0EA
:1011F000286810F02000286057D0286810F04000C0
:10120000286052D0286810F0800028604DD02868EF
:1012100010F00100286000E04AE046D0306910F08C
:101220002000306141D0306910F0100030613CD0B6
:10123000206810F08000206037D0206810F0400057
:10124000206032D0306910F0010030612DD020686C
:1012500010F01000206028D0286810F400402860AA
:1012600023D0206810F0080020601ED0306910F0F4
:101270000200306119D0306910F00400306114D0E0
:10128000306910F0080030610FD0206810F00200C3
:1012900020600AD0206810F00400206005D020688B
:1012A00010F00100206000D039701620BDE8F081F8
:1012B00000F0CAFA052001F079FD00203870286896
:1012C00010F0080129605B4860D0296811F0100116
:1012D00029605ED0296811F0200129605CD029685E
:1012E00011F0400129605AD0296811F0800129606D
:1012F00058D0296811F00101296056D0316911F0E8
:101300002001316157D0316911F01001316158D09D
:10131000216811F08001216059D0216811F040014D
:1013200021605AD0316911F0010131615BD021682F
:1013300011F01001216059D0296811F40041296091
:101340005AD0216811F0080121601DD0316911F0D7
:101350000201316152D0316911F0040131614FD085
:10136000316911F0080131614DD0216811F002019D
:1013700021604BD0216811F0040121604CD020681D
:1013800010F00100206090D10D208FE7007840BB65
:101390008CE70078F8B91CE00078B0B913E0007869
:1013A00068B90AE0007820B901E0007808B10420AB
:1013B0007CE705207AE7007808B1032076E706206D
:1013C00074E7007808B1022070E707206EE7007824
:1013D00008B101206AE7082068E7007808B100201A
:1013E00064E7092062E7007820B901E0007808B1DD
:1013F0000A205BE70B2059E70C2057E70E2055E742
:10140000007868B90AE0007820B901E0007808B1F6
:1014100010204BE7112049E7007808B10F2045E77D
:10142000122043E72D000020100C01400010014065
:10143000100801402C00002070B592B0012102205C
:1014400000F048FA0121092000F05CFA6846FFF735
:1014500017FD0220ADF800000125029003908DF8E1
:10146000025069461D48FFF761FC1D4C04A800F0BE
:1014700061FA1C4905988842069800D94000B0FBE3
:10148000F4F0401EADF828006420ADF82C000024D4
:10149000154EADF82E40ADF82A400AA9304600F0AE
:1014A000AFFC6020ADF838003C20ADF83E00ADF850
:1014B0003A50ADF840400EA9304600F073FC0821C8
:1014C000304600F0DFFB0121304600F0C9FB01216E
:1014D000304600F051FC12B070BD0000000C01401D
:1014E000404B4C00C0FC9B01000400402DE9F04142
:1014F00000252E4630B1012806D0022806D0032848
:101500002ED11CE003262BE00125FBE7164F174EDA
:101510000025387800B10420294600F09FF8002407
:1015200004EBC510305C00F02AF9641CE4B2802C96
:10153000F6D36D1CEDB2082DEBD3BDE8F081032589
:1015400005260DE02946002000F088F80024002040
:1015500000F015F9641CE4B2802CF8D36D1CEDB2D8
:10156000B542EFD9E9E700002C000020AA320008BC
:101570001FB50121082000F0C5F96846FFF780FC7F
:1015800043F60440ADF80000012002908DF80400FD
:1015900000208DF8030069460148FFF7C7FB1FBD17
:1015A000000C014010B5FFF7E3FF2B4C206840F022
:1015B00004002060206820F4806020600A2001F090
:1015C000F5FB206840F4806020600A2001F0EEFB0B
:1015D0000021E22000F08AF80A2001F0E7FB002158
:1015E000A22000F083F80021A02000F07FF8002165
:1015F000C82000F07BF80021252000F077F80220B9
:1016000001F0D4FB0021812000F070F8002124209B
:1016100000F06CF8022001F0C9FB0021F82000F076
:1016200065F80021084600F061F8022001F0BEFBD9
:1016300000212F2000F05AF8022001F0B7FB002112
:10164000402000F053F80220FFF750FF0021BDE8D2
:101650001040AF2000F04AB8140C014010B5044609
:10166000B031C8B200F088F8102000EB141000F080
:1016700083F804F00F00BDE8104000F07DB80000D2
:101680002DE9F0471646174ADDF820A09946127852
:101690000AB1001DC0B2FFF7E1FF0025DFF8488066
:1016A0001BE0002405EB450704EB470151450ED82C
:1016B000705DB9F1000F00EB400108EB41002044E0
:1016C00010F8C00C01D1C043C0B200F058F8641C3F
:1016D000E4B2062CE8D36D1CEDB2705D0028E0D1B9
:1016E000BDE8F0872C0000207030000870B5214D57
:1016F0000646286820F480502860286820F00400FE
:101700002860286811B140F4006001E020F4006016
:1017100028600A2001F058FB002406FA04F00006B5
:10172000286802D540F4005001E020F40050286001
:10173000286840F4805028600A2001F045FB2868A2
:1017400020F4805028600A2001F03EFB641CE4B2C3
:10175000082CE2D30A2001F037FB286840F004008F
:101760002860286840F400602860BDE870400A20C6
:1017700001F02ABB140C01400021FFF7B7BF012183
:10178000FFF7B4BF30B593B00024009401940294E5
:1017900001210420039400F09DF80121092000F0AC
:1017A000B1F84FF40070ADF810008DF8134003202D
:1017B0008DF812000220069007908DF8144004A9BD
:1017C0001D48FFF7B3FA1D4D08A800F0B3F81C49F7
:1017D000099888420A9800D94000B0FBF5F0401EF5
:1017E000ADF838006420ADF83C00164DADF83E4031
:1017F000ADF83A400EA9284600F002FB6021ADF892
:1018000000100120ADF802003220ADF80600ADF85E
:1018100008406946284600F0C5FA0821284600F02D
:1018200031FA0121284600F01BFA0121284600F078
:10183000A3FA13B030BD0000000C0140404B4C0037
:10184000C0FC9B0100080040074A00B51068002852
:1018500009D006480078FFF789F8116800205DF884
:1018600004EB01F073BA00BD180000201C0000203A
:1018700030B50F23C27801780125F2B1144A1268FD
:1018800001F1E02102F4E062C2F5E062120AC2F165
:101890000404D3404278A24084781C4014432201BF
:1018A00081F80024007800F01F018D40400980007D
:1018B00000F1E020C0F8005130BD01F01F0085406C
:1018C0004809800000F1E020C0F8805130BD0000E0
:1018D0000CED00E0044A0029D16901D0014300E089
:1018E0008143D1617047000000100240044A002982
:1018F000116901D0014300E081431161704700008C
:1019000000100240044A0029916901D0014300E01F
:10191000814391617047000000100240044A002991
:10192000D16801D0014300E08143D16070470000DD
:101930000010024070B5324B5968324A11405A6863
:101940005C6A02F48032C4F302140D0101D4022552
:1019500001E06FF4F77505EB91411AB15A689203F3
:1019600005D502E01A6CD20701D0274A00E0274AC9
:1019700051431A6C920700D549085A68244D12F059
:101980000C0206D0214E042A07D0082A05D00C2AC2
:1019900005D055F82420026002E0066000E00160F6
:1019A0005A680F2404EA1212194C403CA55C0268E4
:1019B000EA4042605D68072606EA1525655D22FA61
:1019C00005F585605D6806EAD525645D22FA04F4B4
:1019D000C460DC6A0E4D04F00F04303D2C5DB2FB98
:1019E000F4F24261DA6A1F2303EA121202F00F02D4
:1019F00005F1100333F81220B1FBF2F1016170BD63
:101A00000010024000003C0800127A000024F4009C
:101A10005430000825480021026842F480320260F8
:101A20004FF400530268491CC2F340420AB999427C
:101A3000F8D10168C1F3404199B31D490A6822F009
:101A400003020A600A680A604168416041684160B7
:101A5000416841F4806141604168164A114041602B
:101A6000016C21F001010164416841F48032016C94
:101A700042F4202242600164016841F080710160FB
:101A800001688901FCD5416821F00301416041688A
:101A900041F0030141604168C1F381010329FAD19A
:101AA0007047FFE7054904480860F9E70010024065
:101AB00000200240FFFFC0F700093D0000000020A9
:101AC0004FF0E0210428086903D020F004000861E9
:101AD000704740F00400FAE71F4810B5016841F470
:101AE000700101601D48416A41F004014162416892
:101AF0001B4A1140416001681A4A114001600168A7
:101B000021F4802101604168174A114041600021A1
:101B1000C1624FF460520263416301641349816002
:101B2000C16941F08051C161C16921F08051C16139
:101B30000F48016841F0900101600168C90503D5B3
:101B4000016821F400710160FFF764FF02494FF062
:101B500000608039086010BD88ED00E00010024090
:101B600000C0FFF8FFFFF6FEFFFF00070080BF0484
:101B7000002002404FF08040016921F00101016125
:101B800001F03CB910B50C4C0121204600F0FEF8E4
:101B9000002810D00121204600F05EF800212046E8
:101BA00000F0EAF8002240F22551044800F030FA33
:101BB00003490120087010BD0010004000380140AA
:101BC0000C00002030B58BB001211020FFF782FE01
:101BD00033208DF8280001258DF8295002208DF83A
:101BE0002A008DF82B500AA8FFF742FE4CF2503421
:101BF0006846FFF79FFE164901988842029800D96F
:101C00004000B0FBF4F0401EADF818004FF47A70BD
:101C1000B4FBF0F000EB8000ADF81C0000200D4C90
:101C2000ADF81E00ADF81A0006A9204600F0E8F84D
:101C30000121204600F010F8A5840021204600F084
:101C40009BF801221146204600F014F80BB030BD7D
:101C5000C0FC9B010010004002698A43026170478A
:101C60000029016802D041F0800101E021F08001EB
:101C700001607047002A828901D00A4300E08A434C
:101C800082817047828B4FF6FF7322F4006203EA71
:101C900001211143818370472F4910B5884202D139
:101CA0000121C41440E0B0F1804F09D02B49884293
:101CB0000DD101210220FFF719FE0021022046E08C
:101CC00001210846FFF712FE002101203FE02449D0
:101CD000884206D101210420FFF708FE00210420DC
:101CE00035E02049884206D101210820FFF7FEFD9A
:101CF000002108202BE01C49884206D10121102038
:101D0000FFF7F4FD0021102021E01849884206D198
:101D100001212020FFF7EAFD0021202017E01449CF
:101D200088420AD1012144142046FFF7F7FD2046DE
:101D3000BDE810400021FFF7F1BD0E4988420AD1ED
:101D4000441501212046FFF7D1FD00212046BDE8C2
:101D50001040FFF7CBBD10BD002C01400004004037
:101D600000080040000C004000100040001400403B
:101D700000340140003C00400029016802D041F0DD
:101D8000010101E021F001010160704702460020DD
:101D9000136992890B4202EA010202D0002A00D0A4
:101DA0000120704770B5026A22F480520262046A10
:101DB0004268838B4FF6FF7623F4E6450B8824F4C4
:101DC000005406EA03232B430D8944EA05344D8869
:101DD00044EA0534084DA84202D0084DA84204D177
:101DE0008D8922F4804242EA851242608383C98849
:101DF000A0F84010046270BD002C01400034014086
:101E00002DE9F04302684B4C484FDFF824914A4ECD
:101E1000DFF828C125054A4BB8420BD0A04209D0B3
:101E2000A84207D0B04205D0984203D0484501D01F
:101E3000604504D122F070084A8842EA0802DFF8BF
:101E40000481404508D0DFF80081404504D022F4E9
:101E50004078CA8842EA080202608A8882850A8835
:101E60000285B84201D0A04201D10A7A028601223D
:101E700082820268B8420BD0A04209D0A84207D0A3
:101E8000B04205D0984203D0484501D0604509D101
:101E900091F80980B8F1000F02D042F4006201E02D
:101EA00022F4006260451DD191F80A80B8F1000F5C
:101EB00002D042F4805201E022F4805291F80B806B
:101EC000B8F1000F02D042F4005201E022F40052B7
:101ED00091F80C80B8F1000F02D042F4804201E08A
:101EE00022F48042B84209D0A04207D0A84205D0CF
:101EF000B04203D0984201D0604506D14C7B14B16A
:101F000042F4004201E022F4004202604268A8422A
:101F100001D0984206D1897B11B142F4807201E070
:101F200022F480724260BDE8F0830000002C014082
:101F3000000C00400034014000040040003C004020
:101F4000000800400010004000140040F0B5ADF261
:101F5000044D05464FF480616846FEF71CF9194CA4
:101F6000002294F80404D4F8051440EA012640F253
:101F700001112046FEF70EFD86421DD12288022166
:101F80006B46901C05E0665C5F18491C07F8026C04
:101F900089B28142F7D305EBD57020F00100291AF0
:101FA0000020094C05E01D5C00EB8126401CA55576
:101FB00080B29042F7D301E04FF6FF720DF2044D6C
:101FC0001046F0BD44080020D40C002010B50C4C85
:101FD00040F22551204600F088F800280FD0204616
:101FE00000F0F2F8084A074B51685854491C07485A
:101FF000516000218184016841F00101016010BD40
:1020000000380140440800200C000020001000406F
:1020100010B5C1F3421301F01F040121A140012BAF
:1020200007D0022B07D01430002A026805D00A43DB
:1020300004E00C30F8E71030F6E78A43026010BD88
:1020400070B51C49884202D101218C031EE01A4957
:102050004FF40034884206D101212046FFF746FCA8
:10206000002120460AE015494FF48025884209D115
:1020700001212846FFF73AFC00212846BDE87040C0
:10208000FFF734BC0E49884206D101212046FFF7F4
:1020900045FC0021204608E00A49884209D1012177
:1020A0002846FFF73BFC00212846BDE87040FFF7BB
:1020B00035BC70BD0038014000440040004800407D
:1020C00000500140005401400029818902D041F4B0
:1020D000005101E021F40051818170470246002047
:1020E00012880A4200D00120704770B501F01F0528
:1020F00001260024C1F3421306FA05F2012B0FD08A
:10210000022B0FD0838A4FEA11210088134206FA6E
:1021100001F600EA060001D000B10124204670BD9E
:102120008389F0E7038AEEE730B50446008A87B07A
:102130000D464CF6FF710840E98801432182A189D0
:102140004EF6F3100140A8882A8910436A890A4391
:102150001043A081A08A4FF6FF410840A98901439E
:10216000A1826846FFF7E6FB1448844205D0144973
:102170008C4202D013498C4201D1039800E00298AE
:10218000642200EBC00101EB001029686FF0180514
:102190008900B0FBF1F0B0FBF2F109010B096B43D0
:1021A00000EB8300322303EB0010B0FBF2F000F0F1
:1021B0000F000843208107B030BD00000038014007
:1021C00000500140005401408088C0F3080070476F
:1021D000C1F30801818070470FB4054B10B503A906
:1021E000044A029800F062F910BC5DF814FB00008C
:1021F0005D2E00083C000020BFF34F8F05480168AA
:10220000054A01F4E06111430160BFF34F8F00BF45
:10221000FDE700000CED00E00400FA0500487047FF
:10222000400000200000000010B52DED020B2DED48
:10223000088B84B09DED0C0B51EC100BFEF796FA59
:1022400041EC180B9DED0C0B53EC182B51EC100BC3
:10225000FEF76CF841EC190B0D989FED290B10F06F
:10226000004F53EC102B51EC190B9FED21AB9FED60
:1022700022BB0ED0FEF7D6FA0ED953EC1B2B51EC35
:10228000190BFEF7E7FA1CD214E000BF41EC180B63
:1022900017E0FEF7C7FA06D253EC1A2B51EC180BD5
:1022A000FEF744F8F2E753EC1B2B51EC190BFEF749
:1022B000D1FA06D853EC1A2B51EC180BFDF795FF09
:1022C000E4E78DED028B9DED0C0B18EE901A10EEED
:1022D000900A8DED000B61F31E0003909DED020B43
:1022E00004B0BDEC088B02B010BD0000000000007F
:1022F000000000000000F03F000000000000E03F90
:10230000000000000000E0BF02E008C8121F08C182
:10231000002AFAD170477047002001E001C1121F66
:10232000002AFBD1704700002DE9FF5F82B0002139
:10233000DDE90430020DDDF840B0034318D044F667
:102340001050A2F2FF3242431514119801281FD0F9
:10235000A5EB0B00401C5FEA000A4FF000064E4F51
:10236000DFF83891B046504615D5CAF1000413E0A5
:10237000119801244AA3012801D16FEA0B010298A8
:10238000119AC0E90031C0E9024206B0BDE8F09FF1
:10239000CBF10000DFE704460021404A491842EB38
:1023A0000450CDE9001012E0E00707D032463B466A
:1023B00040464946FEF7F9F88046894632463B4694
:1023C00010461946FEF7F1F806460F466410002C39
:1023D000EAD1DDE90401DDE90023BAF1000F06DAF4
:1023E000FEF7E3F842464B46FEF7DFF805E0FEF75E
:1023F0004EF942464B46FEF74AF904460E46002285
:10240000284BFEF727FA03D84FF0FF30014607E0CC
:102410000022254B20463146FDF7E7FEFEF7EAF99C
:10242000102409E0002C0ADB0A220023FDF7C6FF76
:10243000039B30321A55641E50EA0102F2D1641C2B
:10244000039AC4F111031444119A012A03D0012202
:1024500008430DD10AE0084304D000204FF0110BCF
:10246000119072E7A3EB0B056D1E0DE05B4504DDDB
:102470004FF0000205F1010504E003DA4FF000021D
:10248000A5F10105002AECD002981199C0E90231AA
:10249000C0E9004579E70000000014400000F03F6B
:1024A000300000000000F0430000E03F2DE9FF4F46
:1024B00095B09B468946064600250FE2252877D130
:1024C00000242746F84A0121059400E0044316F849
:1024D000013F203B01FA03F01042F7D130782A285F
:1024E00011D06FF02F033078A0F13002092A16D8EE
:1024F000059A44F0020402EB820203EB420210440C
:10250000761C0590EFE759F8042B0592002A03DAB0
:10251000504244F40054059044F00204761C307894
:102520002E2816D116F8010F44F004042A280DD0E5
:102530006FF02F023078A0F13003092B09D807EB98
:10254000870302EB4303C718761CF3E759F8047BB3
:10255000761C30786C280FD006DC4C2817D0682801
:102560000DD06A2814D104E0742810D07A280FD135
:102570000DE044F400140AE044F4801401E044F453
:1025800040147278824202D104F58014761C761CC5
:10259000307866280BD013DC582877D009DC002867
:1025A00075D04528F6D04628F4D047281AD19DE1A9
:1025B00018E0632835D0642879D0652812D195E1D8
:1025C000702873D008DC6728F1D069286FD06E2896
:1025D0000DD06F2806D1B5E073282CD0752875D0A2
:1025E000782874D05A46179990476D1C75E1C4F34A
:1025F0000250022809D003280DD0D9F80010042871
:102600000DD00D6009F1040967E1D9F80010EA174F
:10261000C1E90052F6E7D9F800100D80F2E70D701D
:10262000F0E719F8041B8DF8001000208DF8010068
:10263000EA46012003E059F804AB4FF0FF30610790
:102640004FF0000102D40DE008F101018846B942C3
:102650000FDA8045F8DB1AF808100029F4D108E0F9
:1026600008F1010188468142FADB1AF808100029B6
:10267000F6D105985B46A0EB080721463846179A25
:1026800000F094FA284400EB080507E04DE029E14A
:102690000DE01AF8010B5A4617999047B8F1010856
:1026A000F7D25B4621463846179A13E142E00A22E8
:1026B0000092C4F302524FF0000A022A08D059F8DF
:1026C00004CB032A4FEAEC710AD00DE029E02AE09E
:1026D00009F1070121F00702F2E802C1914609E081
:1026E0000FFA8CFC4FEAEC71042A03D14FFA8CFCF0
:1026F0004FEAEC71002907DA0A460021DCF1000CF0
:1027000061EB02012D2202E0220504D52B228DF877
:102710000420012203E0E20701D02022F7E79046DF
:1027200059E00A2102E010220DE010214FF0000ACA
:1027300000910BE010224FF0000A44F00404082737
:10274000009203E008224FF0000A0092C4F3025204
:10275000022A05D059F804CB0021032A08D009E049
:1027600009F1070121F00702F2E802C1914605E0F4
:102770001FFA8CFC042A01D10CF0FF0C4FF000086A
:10278000220728D5702806D0009B83F0100353EA57
:102790000A0305D00EE040228DF80420012208E053
:1027A0005CEA010206D030228DF804208DF8050085
:1027B00002229046009B83F0080353EA0A030AD1E1
:1027C0005CEA010201D1620705D530228DF80420B0
:1027D0004FF001087F1E582804D034A003900EA8A3
:1027E00002900DE036A0F9E753466046009AFDF7E7
:1027F000E5FD84460398825C0298401E02900270B8
:102800005CEA0100F0D1029806A9081A00F1200A3A
:10281000600702D524F4803400E00127574502DD2B
:10282000A7EB0A0000E0002000EB0A0100900598E9
:102830004144401A0590E00306D45B462146179AAE
:10284000059800F0B3F90544002706E001A85A46B0
:10285000C05D179990476D1C7F1C4745F6DBE00370
:102860000CD55B462146179A059800F09FF9054460
:1028700004E030205A46179990476D1C0099481E75
:1028800000900029F5DC08E0029802995A46007889
:10289000491C0291179990476D1CBAF10001AAF1E9
:1028A000010AF1DC65E10000092801003031323312
:1028B000343536373839616263646566000000007C
:1028C0003031323334353637383941424344454666
:1028D0000000000000F058F90544761C307800280C
:1028E0007FF4ECAD19B02846BDE8F08F620700D444
:1028F000062709F1070222F0070CFCE80223E14653
:1029000003F000485FEA080C02D00FF2702C0DE0D3
:102910005FEA045C02D50FF2682C07E05FEAC47C32
:1029200002D00FF2602C01E0AFF2700C4FF0FF38D4
:1029300023F00043CDF850C065280CD006DC4528B4
:1029400009D046281DD047283DD13DE0662818D043
:1029500067287ED138E00021112F01DB112000E033
:10296000781CCDE9000106A90EA8FFF7DDFCDDE922
:102970000F010E9A03910021009207F1010A0491C0
:102980004DE04FF000400097CDE9011006A90EA8D8
:10299000FFF7CAFCDDE90F0203920E9B119900229A
:1029A000DDF80CA00093049211B9791C00EB010A28
:1029B000B7EB0A0004D4C0F1FF3007F1010A04901C
:1029C000AAEB0700019044E0012F00DA0127002163
:1029D000112F01DD112000E03846CDE9000106A9E4
:1029E0000EA8FFF7A1FCDDE90F010E9A039100216B
:1029F00004910092BA4621070CD40399514500DA9C
:102A00008A46BAF1010F05DD009AAAF10101515C75
:102A1000302908D0B84202DA10F1040F06DA012199
:102A2000CDE9011015E0AAF10101E9E7002805DC74
:102A3000049901440491AAEB000102E0411C5145B4
:102A400000DD8A460499401A401C01904FF0004076
:102A50000290200704D40198504501DBCDF8048092
:102A600000208DF84F0002980DF14F07B0F1004F94
:102A700025D02B200E9002984FF0020800280CDA87
:102A8000404202902D200E9007E00A210298FDF7A7
:102A90007FFC3031029007F8011DB8F10001A8F168
:102AA0000108F2DC02980028EFD1791E0E98087018
:102AB000307800F0200040F0450007F8020D12A821
:102AC000C01B00F107081498007800B1012000EB4A
:102AD0000A01019801EBE07105984144401A401E3B
:102AE0000590E00306D45B462146179A059800F04E
:102AF0005DF805441498007818B15A461799904724
:102B00006D1CE00324D55B462146179A059800F01A
:102B10004DF805441CE00498002807DBDDE90301BB
:102B2000884203DD0098405C179901E01799302036
:102B30005A469047049805F10105401C04900198FD
:102B4000401E019004D12E205A46179990476D1CC3
:102B5000BAF10001AAF1010ADDDC05E017F8010B6A
:102B60005A46179990476D1CB8F10001A8F1010869
:102B7000F4DC5B462146179A0598ABE62D00000071
:102B80002B000000200000002DE9F0410446002544
:102B90001E461746880404D405E039462020B04775
:102BA0006D1C641EF9D52846BDE8F0812DE9F04181
:102BB000044600251E469046C80301D5302700E094
:102BC0002027880404D505E041463846B0476D1CEF
:102BD000641EF9D52846BDE8F08100002DE9F047D4
:102BE000ADF5016D5720CDF804080020DFF82891DD
:102BF000474ECDF80C08474CCDF8086848460122EE
:102C00000DF60401CDF80098FDF7CEFFDDF80408BD
:102C100055284BD13046FDF747FF01220DF60C0138
:102C20003E48FDF7C1FFDDF80C08A046CDF8086866
:102C3000CDF80048C00AFDF77FFB9FED391B53EC30
:102C4000112BFDF7D2FA41EC100BFFF7EDFA51EC26
:102C5000100BFDF77EFB00240546B7144FF0FF3A3A
:102C60001DE03A466946DDF80008FDF79DFF3A464B
:102C70006946DDF80808FDF7C1FFDDF8080852468F
:102C800000F50060CDF80808DDF80008394600F5C9
:102C90000060CDF800086846FDF776FA641CAC4287
:102CA000DFDB4046CDF80088FDF7FEFE30681E49A8
:102CB0000840B0F1005F06D01CA0FFF78DFA0DF5BB
:102CC000016DBDE8F087FEF7E6F81D4C00212046B7
:102CD000FFF7FAF92046FFF7B3F91A4C0021204616
:102CE000FFF74AF82046FEF7D7FF7068164C2060C1
:102CF0003068FDF733FAAA20CDF8040801220DF65A
:102D000004014846FDF77AFF20688047D7E70000B6
:102D10000050000800280108004800080049000889
:102D2000000000000000E03F0000FE2F456E7465CB
:102D30007220617070206572726F720A000000006C
:102D4000003801400010004038000020072800D360
:102D5000FEE7064A00EB400042F8201002EB80003C
:102D6000416000214172012101727047800C0020F6
:102D700010B56FF00400FEF7A3FE0948094900688A
:102D8000B0FBF1F00849C0B200EB40020870C2EBA2
:102D9000C0104FF6FF7202EAC000888010BD00002C
:102DA0000000002000127A000400002070B50546E3
:102DB00000244FF47A7603E0304600F005F8641CF6
:102DC000AC42F9DB70BD00000B49097848434FF075
:102DD000E021486100238B61086940F0010008612F
:102DE0000869C20701D0C003FAD5086920F00100C4
:102DF00008618B61704700000400002030B5154B5E
:102E00005868012420B15868401E586000D11C70D9
:102E1000114D002101EB410005EB800002684AB131
:102E20000268521E026005D14472027A012A01D161
:102E300042680260491CC9B20729EBD39868401C5C
:102E4000986098686FF00041884201D10020986036
:102E500030BD000020000020800C00202DE9F04152
:102E6000124E134D04460D2803D000270A2C03D020
:102E70000EE00120B0600CE0B06848B90D21284692
:102E8000FFF7A6F940212846FFF728F90028F9D0D6
:102E9000B760E1B22846FFF79BF940212846FFF7CB
:102EA0001DF90028F9D02046BDE8F0810C00002073
:102EB00000380140F0B589B06846FDF7E1FF012117
:102EC0000520FEF71FFD01218803FEF71BFD2520CD
:102ED0008DF8200000248DF821408DF82240012536
:102EE0008DF8235008A8FEF7C3FC6802ADF8000077
:102EF00002200426CDE90206164F69463846FDF742
:102F000015FFA802ADF800008DF804506946384658
:102F10000396FDF70BFF4FF4E130ADF81440049039
:102F2000ADF81640ADF81840ADF81C400C200A4C26
:102F3000ADF81A00012240F225512046FFF768F84B
:102F400004A92046FFF7F0F801212046FFF7BCF85E
:102F500009B0F0BD000801400038014008B5FFF796
:102F6000A9FFFDF75FFD01282AD0FFF737FEAA2051
:102F7000009015480168AA2903D001226946FDF78F
:102F80003DFEFFF7F5FEFEF71DFEFEF70BFBFEF71D
:102F900053FAFEF7F7FB0D480078FDF7E7FCFEF764
:102FA00077F8FDF77BFFBFF34F8F09480168094AA7
:102FB00001F4E06111430160BFF34F8F00BFFDE7F3
:102FC00005A0FFF709F9FEE7004800081C000020F3
:102FD0000CED00E00400FA05485349206F73636963
:102FE0006C6C61746F72206E6F74207965742072DE
:102FF000656164790D0A0000034600F001000121BB
:10300000420023FA01F000F001001043491C20297E
:10301000F6D370470000000001020304010203041C
:103020000607080901020406080A0C1020202020C7
:1030300020202020010002000400060008000A00F1
:103040000C00100020004000800000010001000181
:1030500000010001A0860100400D0300801A060057
:1030600000350C0040420F0080841E0000093D0026
:103070000000000000000000DEDE0000000006008E
:1030800006000024FE24FE24004854FE542400467A
:103090002610C8C400F09E9AFE90000000000600B2
:1030A00000007C8200000000827C00000022143EB0
:1030B00014220008083E0808000000B07000000854
:1030C00008080808000000C0C00000C0300C020062
:1030D000007CA2928A7C000084FE800000CCA29238
:1030E00092CC00449292926C003028A4FEA0005E24
:1030F00092929262007C92929264000602F20A0618
:10310000006C9292926C005C9292927C000000D8CB
:10311000D800000000B6760000102844820000505D
:1031200050505050000082442810000402A2120C9B
:10313000007CFAEAFA3C00FC121212FC00FE9292A9
:10314000926C007C8282824400FE8282443800FEBF
:103150009292928200FE12121202007C829292F4EB
:1031600000FE101010FE000082FE82000040827EF1
:10317000020000FE1028448200FE8080808000FE55
:10318000041804FE00FE081020FE007C8282827C6F
:1031900000FE1212120C007C82A2C27C00FE1232CF
:1031A000528C008C92929262000202FE0202007E19
:1031B0008080807E003E4080403E007E80F0807EA9
:1031C00000C6281028C6000608F0080600C2A29211
:1031D0008A860000FE82000000020C30C000000061
:1031E00082FE0000000402020400008080808080D3
:1031F0000000020400000050A8A870800002FE88B1
:103200008870007088888850007088887E8200707E
:10321000A8A8A8B0000090FC92040054AAAAA64254
:103220000082FE08F080000088FA80000080887A22
:1032300000000082FE20D888000082FE800000F896
:1032400008F808F000F81008F0000070888888700E
:103250000080F8A82810001028A8F880000088F83E
:1032600088100090A8A8A8480000087C8840007832
:1032700080887880003840804038003840F04038FE
:103280000088502050880088502010080098C8A856
:1032900098C80000106C8282000000FE0000000050
:1032A00082826C10000402040402FFFF0703F3F3A0
:1032B0000307FFFFFFFF3FDFEFF7C1E3F7FFF7EF84
:1032C000DF3FFF00FFFFFFF70303FFFFFFFFFF8765
:1032D000EB87FF83ABD7FFC7BBBBFFFFFF00FFFF41
:1032E000FFF37373730307FFFFFF07778FFF075722
:1032F00077FF07D7F7FFFF00FFFFF3F3737307872D
:10330000FFFFFFFFFF8F7717FF07DF07FF770777C5
:10331000FF00FFFF03033F3F0303FFFFFF7F7F87A4
:10332000FF07DF27FF077F7FFFFFFFFFE0C0CFCF53
:10333000C0E0FFFFFFFFFEFDFBF7FFF7E3C1F7FB78
:10334000FDFEFF00FFFFFFDFC0C0DFFFE3DDDDFFAD
:10335000C3F5C3FFC1DFDFFFC1DFDFFFFF00FFFFFA
:10336000FFC0C0CECECECFFFFFFFFFFFFFFFC1DF0C
:10337000DFFFFDC1FDFFFF00FFFFCFCFCECEE0E1BD
:10338000FFC1F3C1FFE3DDE3FFC1DDE3FFC1D5DD35
:10339000FF00FFFFFFFFFFFFC0C0FFFFFFFFFFFFBA
:1033A000D3D5E5FFE3DDCDD3FFFF00000000000033
:1033B000000000000000000000000000000000000D
:1033C00000000000000000000000000000000000FD
:1033D00000000000000000000000000000000000ED
:1033E00000000000000000000000000000000000DD
:1033F00000000000000000000000000000000000CD
:1034000000000000000000000000000000000000BC
:1034100000000000000000000000000000000000AC
:10342000000000000000000000000000000000009C
:10343000000000000000000000000000000000008C
:10344000000000000000000000000000000000007C
:10345000000000000000000000000000000000006C
:10346000000000000000000000000000000000005C
:10347000000000000000000000000000000000004C
:10348000000000000000000000000000000000003C
:10349000000000000000000000000000000000002C
:1034A000000000000000000000000000000000001C
:1034B000000000000000000000000000000000000C
:1034C00000000000000000000000000000000000FC
:1034D00000000000000000000000000000000000EC
:1034E00000000000000000000000000000000000DC
:1034F00000000000000000000000000000000000CC
:1035000000000000000000000000000000000000BB
:1035100000000000000000000000000000000000AB
:10352000000000000000000000000000000000009B
:10353000000000000000000000000000000000008B
:10354000000000000000000000000000000000007B
:10355000000000000000000000000000000000006B
:10356000000000000000000000000000000000005B
:10357000000000000000000000000000000000004B
:10358000000000000000000000000000000000003B
:10359000000000000000000000000000000000002B
:1035A00000000000000000000000FFFF03033333B1
:1035B0003373FFFF83F3E7F383FF83F3CF83FFC707
:1035C000BBC7FF00FFFF0703737373FFFFFFFF839A
:1035D000EBE3FFC7BB9BA7FF83EB93FFFF00FFFF5E
:1035E000F3F3F3330383FFFFFFFFA7ABCBFFFB83B3
:1035F000FBFFC3BFC3FFFF00FFFFFF87033333039E
:1036000087FFFFFFFFE3DF83FF83DF83FF93EF93FA
:10361000FF00FFFF070373730307FFFFFFF38FF341
:10362000FF9BABB3FFFD85F3FFFFFFFFCFCFCFCFF6
:10363000C0E0FFCDD5D9FFC1D5DDFFC1F5C9FFE39E
:10364000DDE3FF00FFFFE0C0CECEC0E0FFFFFFFFE5
:10365000FFFFDFCFC7C3C7CFDFFFFFFFFF00FFFFC5
:10366000FFFFC0C0FEFFFFFFFFFFE3DDE3FFC1F58B
:10367000F1FFFDC1FDFFFF00FFFFFFE0C0CECEC0A8
:10368000E0FFFFFFFFC1F5F1FFE3DDC5FFC1F3C1BF
:10369000FF00FFFFFFCECECEC0E0FFFFFFFFFFFF2A
:1036A000FFFBF3E3C3E3F2FBFFFF00404040404079
:1036B0004040404041414141414040404040404005
:1036C000404040404040404040404005020202022D
:1036D0000202020202020202020202202020202034
:1036E00020202020200202020202020290909090EC
:1036F00090901010101010101010101010101010CA
:10370000101010101010020202020202888888882D
:103710008888080808080808080808080808080829
:10372000080808080808020202024000AB36000838
:103730005037000800000020440000000823000863
:103740009437000844000020942900001823000842
:103750000048E80100000000000000000000000038
:1037600000000000000000001027000064000000BE
:103770000000000000000000000000000001000048
:103780000028010800000000000000000000000008
:043790000000000035
:0400000508000149A5
:00000001FF
