:020000040800F2
:10500000103000205D51000865510008675100080C
:10501000695100086B5100086D5100080000000044
:105020000000000000000000000000006F510008B8
:10503000715100080000000073510008755100080C
:105040007751000877510008775100087751000820
:105050007751000877510008775100087751000810
:105060007751000877510008775100087751000800
:1050700077510008775100087751000877510008F0
:1050800077510008775100087751000877510008E0
:1050900077510008775100087751000877510008D0
:1050A00077510008775100087751000877510008C0
:1050B000D9AC0008775100087751000877510008F3
:1050C00077510008775100087751000877510008A0
:1050D0007751000895B20008775100087751000811
:1050E0007751000877510008775100087751000880
:1050F0007751000877510008775100087751000870
:105100007751000877510008775100088DAD0008ED
:10511000775100087751000877510008775100084F
:10512000775100087751000877510008775100083F
:10513000775100087751000877510008775100082F
:105140007751000877510008DFF80CD000F074FBAD
:105150000048004775C3000810300020064880470B
:1051600006480047FEE7FEE7FEE7FEE7FEE7FEE74C
:10517000FEE7FEE7FEE7FEE73DAC00084951000808
:10518000D2B201E000F8012B491EFBD27047002289
:10519000F6E710B513460A4604461946FFF7F0FF36
:1051A000204610BD30B505462A460B4612F8010BC5
:1051B00013F8014B08B1A042F8D01CB1002802D06E
:1051C0006D1CF1E7284630BD421C10F8011B002978
:1051D000FBD1801A7047034611F8012B00F8012B10
:1051E000002AF9D11846704770B5064606F06CFAE9
:1051F000046805460A220021304600F06FFA2C6050
:1052000070BD2DE9FE4F804681EA0300C00F0C46B9
:10521000009021F0004123F00045B8EB0200A941C5
:1052200005D24046214690461C460B46024623F0D6
:105230000040104347D0270DC7F30A00C3F30A51BB
:105240000290401A019040286BDAC3F3130040F437
:10525000801B0098924620B10023D2EB030A63EB37
:105260000B0B01985946C0F14002504600F005FA78
:1052700006460D4650465946019A00F01DFA10EBBD
:1052800008006141002487EA115284EAE7731A4357
:1052900040D0009A62B3019A012A4FEA075215DC06
:1052A000001B61EB02014FF0004202EA0752CDE918
:1052B0000042001C41F5801132462B4600F055FAA1
:1052C00003B0BDE8F08F40462146F9E7001B61EBD3
:1052D0000201001C41F5801300185B412018A2F563
:1052E000001747EB030140EAD570B6196D4111E094
:1052F0006D084FEA360645EAC0754FEA0752001BB3
:1053000061EB0201001C41F5801149084FEA3000B1
:105310000019514132462B4603B0BDE8F04F00F072
:1053200015BA0098012240000023D0EB020263EB83
:10533000E073009821464FEAE074B8EB000061EB9F
:105340000401E9E783F000435BE781F0004158E79F
:105350002DE9FE4F81EA030404F0004421F00041EE
:1053600000944FF0000B23F0004350EA01045ED09C
:1053700052EA03045BD0C3F30A54C1F30A552C4428
:10538000A4F2F3340194A0FB0254C1F3130141F4DD
:105390008011C3F3130343F4801301FB024400FBA9
:1053A000034E840A970A44EA815447EA8357A4FBD0
:1053B000076802958D0A05FB07854FEA932C04FBCD
:1053C0000C542705029D4FEA065847EA1637B5EBFD
:1053D00008056EEB070C870E920E47EA811742EA2A
:1053E0008312A7FB0201B6EB0B0164EB00042B0D4B
:1053F00043EA0C335E1844EB1C50DA465146E7FB97
:105400000201C5F313044FEA0B3343EA14534FEA86
:105410000432019C43EA0603A4F10C040294009CAC
:10542000CDE900B400F0A1F903B0BDE8F08F002091
:105430000146F9E72DE9F04D81EA030404F0004B41
:1054400021F0004514464FF0000A23F0004150EAD5
:10545000050220D054EA01021DD0C5F30A570246C6
:10546000C5F31303C1F31300C1F30A5640F48015CA
:1054700043F48013A7EB0608101BD64608F2FD384C
:1054800073EB050002D308F1010801E092185B41BB
:10549000B8F1000F03DA00200146BDE8F08D0020CE
:1054A0004FF48011064684460EE0171B73EB050788
:1054B00005D3121B63EB050306434CEA010C4908B4
:1054C0004FEA300092185B4150EA0107EDD152EAF1
:1054D000030012D082EA040083EA0501084305D0E4
:1054E000101BAB4106D20122002306E000224FF040
:1054F000004302E06FF0010253101AEB06004CEB80
:10550000085110EB0A0041EB0B01BDE8F04D00F033
:105510001DB90EB5C10F80EAE0700844CA0700212A
:1055200040F233438DE80E000A460B4600F01DF9A9
:1055300003B000BD0EB540F2334102910021CDE928
:1055400000110A460B4600F010F903B000BD70B51B
:10555000C1F30A5201F000450024C1F3130140F2E7
:10556000FF3341F480119A4201DA002070BD40F20D
:1055700033439A42A2F2334203DC524200F08CF8E9
:1055800000E090402C43F1D0404270BD30B5041E85
:1055900071F1000404DB4FF00044404264EB010170
:1055A000141E73F1000405DB1C464FF00043524209
:1055B00063EB04038B4208BF824230BD30B5041E4A
:1055C00071F1000404DB4FF00044404264EB010140
:1055D000141E73F1000405DB1C464FF000435242D9
:1055E00063EB0403994208BF904230BD30B50B46CF
:1055F000014600202022012409E021FA02F59D4203
:1056000005D303FA02F5491B04FA02F52844151ED6
:10561000A2F10102F1DC30BD2DE9F05F054600206A
:1056200092469B4688460646814640241BE0284613
:1056300041464746224600F02FF853465A46C01AC4
:10564000914110D311461846224600F016F82D1A43
:1056500067EB01084F4622460120002100F00DF8BB
:1056600017EB00094E41201EA4F10104DFDC48467F
:1056700031462A464346BDE8F09F202A04DB203A03
:1056800000FA02F1002070479140C2F1200320FA95
:1056900003F3194390407047202A04DB203A21FA93
:1056A00002F00021704721FA02F3D040C2F120023B
:1056B0009140084319467047202A06DBCB17203A51
:1056C00041FA02F043EAE07306E041FA02F3D04007
:1056D000C2F1200291400843194670472DE9F04776
:1056E00091460F4680460446002614F8015B2DB112
:1056F00000F0B4F80068405DC007F6D12B2D02D051
:105700002D2D18D0641E4A463946204600F0AAF8CE
:1057100027B13968A14201D1C7F8008071054FF067
:1057200002040BD54042002803DD05F0CDFF0460E4
:10573000A007BDE8F08746F48066E4E70028F8DAC1
:1057400005F0C2FF04606FF00040F2E710B5141ED0
:1057500073F1000408DA401C41F1000192185B412A
:105760001A4301D120F0010010BD2DE9F04D924601
:105770009B4611B1B1FA81F202E0B0FA80F2203218
:105780009046FFF77AFF04460F4640EA0A0041EAD6
:105790000B0153465A46084313D0114653EA010001
:1057A00019D0C8F140025046FFF776FF05460E4675
:1057B000504659464246FFF760FF084305D0012096
:1057C00004E020463946BDE8F08D0020054346EA56
:1057D000E0762C4337430A986305E40AA0EB0800FF
:1057E0000022FD0A44EA47540A3002D5002001464F
:1057F000E9E7010510196941DDE90845001969412A
:10580000BDE8F04DA2E7C1F30A52C1F3130140F223
:10581000FF3341F480119A4202DA002001467047BA
:1058200040F233439A42A2F2334202DC5242FFF783
:1058300033BFFFF722BF0000064C074D06E0E068CB
:1058400040F0010394E8070098471034AC42F6D3C7
:10585000FFF77EFCFCEE00081CEF000800487047D4
:10586000C8E300082DE9F05F82460078002715465E
:105870008B460AF10104B946302801D09DB113E0EE
:1058800014F8010B0127782803D0582801D045B11E
:105890000AE00DB1102D07D10027102514F8010BD7
:1058A00002E0082500E00A250026B0460EE005FBD0
:1058B000080005FB06F1012701EB10461FFA80F8EE
:1058C000B6F5803F00D3B94614F8010B294600F025
:1058D00018F80028EBDABBF1000F05D00FB1641EF9
:1058E00000E05446CBF80040B9F1000F06D005F0B7
:1058F000EBFE02210160C81EBDE8F09F48EA0640A9
:10590000FAE73A2800D2303820F02002412A01D3A9
:10591000A2F13700884201D34FF0FF30704770B5D5
:105920008C1810F8015B15F0070301D110F8013B4A
:105930002A1106D110F8012B03E010F8016B01F8D1
:10594000016B5B1EF9D12B0705D40023521E0DD429
:1059500001F8013BFAE710F8013BCB1A921C03E077
:1059600013F8015B01F8015B521EF9D5A142D8D3AF
:10597000002070BD2DE9F84FDFF8ACA081469AF801
:105980000840C51C8026E9B2002328A23C200096CE
:1059900002F0A6FB264F0096E9B257F82420002318
:1059A000422002F09DFB0023E9B21A46742002F067
:1059B0001FFA4FF00308002002F06EFF002001F0F4
:1059C00039F91428F7D2DFE800F0190A0A0A0A0A9E
:1059D0000A0A0B0A1D200A100E1D201D2010EAE7DE
:1059E0000220BDE8F88F0020FBE78AF808408AF81B
:1059F0000790192007F032F80120F2E70096002402
:105A00003A680BE04046641C01E04046A41CB4FB2D
:105A1000F0F108FB1144009657F82420E9B2002366
:105A2000422002F05DFBC6E7E80400203A000000D7
:105A30004800002000EB400040000A21B0FBF1F0DC
:105A4000044910F0FF000880034900D01E200880A0
:105A50007047000040040040400800402DE9F0413C
:105A600005460F488846174641690024490603D475
:105A7000416941F0400141610A4E0120B06007E0F8
:105A800055F8240007B100BA06F0F2FE3060641C3D
:105A90004445F5D3306806F0EBFEC043BDE8F08125
:105AA000001002400030024010B5032006F0D6FF7F
:105AB00008480122032190ED020B002001F078FE3E
:105AC00004480023483802790421BDE810405320DF
:105AD00001F04ABE3005002010B540F23B410748B6
:105AE000FFF755FB012240F22551054805F0F4FB74
:105AF0000449002008800449087010BDF00D002002
:105B000000380140100000200C0000202DE9F8436F
:105B10000124032001F046FC7E4D0121686A04F057
:105B200081FD802000907C48A97D012350F8212030
:105B300003216E2002F0D4FA01230B2204213C2021
:105B400002F090F901230C220421562002F08AF978
:105B500001230D220421702002F084F905F1480888
:105B60004FF4876940F266377826012002F094FEF0
:105B7000287DD8B90C200090012368A203210020C1
:105B800002F0AEFA287E022802D098ED020B08E05F
:105B9000287F0028404602D090ED1A0B01E090EDDE
:105BA000120B012203210C2001F002FE594A0421AC
:105BB0002432002000F054FAC0B2012818D0022884
:105BC0001AD0032826D004282BD005285FD0082817
:105BD0007ED0002CC9D000240121686A04F022FD87
:105BE000E87D4FF001030028009672D04CA289E0B6
:105BF000252006F033FFEEE7686A484502DA686A56
:105C0000401C0CE0252006F029FF0121686A04F001
:105C100009FDE0E7686AB842F4DD686A401E686220
:105C2000F0E7A87D0028A0D0012400230B22042146
:105C30003C2002F017F901233CA20321002000962A
:105C400002F04EFA002002F027FE686A401E6862E9
:105C5000686AB84201DAC5F82490252006F0FEFEF5
:105C60000121686A04F0DEFCE87D30B101230B22DB
:105C700004213C2002F0F6F804E0002000F0DAFFF6
:105C80000E28DFD101230B2204213C2036E0A87D21
:105C900000289FD0012400230C220421562002F06A
:105CA000E1F8012321A203210020009602F018FA56
:105CB000002002F0F1FD686A401C6862686A48458D
:105CC00000DD6F62252006F0C9FE0121686A01E04F
:105CD0001DE016E004F0A6FCE87D30B101230C22A3
:105CE0000421562002F0BEF804E0002000F0A2FFDC
:105CF0000E28DDD101230C220421562002F0B2F837
:105D000067E70EA20321002002F0EAF92DE7BDE8C3
:105D1000F8830000E804002020000020523A000030
:105D20005452554520202020202000005345454B4B
:105D3000494E472E2E2E20202000000046414C5375
:105D400045202020202000000249CA680243CA6082
:105D5000704700000020024018B50E4A0020009055
:105D60001168890714D4116841F0010111604FF4E2
:105D7000A0641168009BC1F340015B1C009309B94A
:105D8000A342F6D11168C1F34001002900D10120DE
:105D900018BD00000010024070B505467C20FFF7DA
:105DA000D3FF4FF43026304600F0B0F8062811D16A
:105DB000094C206940F0020020616561206940F0D3
:105DC00040002061304600F0A1F8216943F6FD72E1
:105DD0001140216170BD00000020024070B50546F1
:105DE00000F088F8114828180AD0B0F5006F09D0E3
:105DF000B0F5604F06D001266FF30A0500240EE0CF
:105E00000126FBE71B26F9E705EBC420FFF7C4FFDB
:105E1000062803D000F036F8012070BD641CB4429F
:105E2000F2D300F02FF8002070BD000000B8FFF79B
:105E30000D490620CA68D20701D001207047CA6800
:105E4000520701D503207047CA68120701D5042004
:105E50007047CA68D20601D505207047C96849064F
:105E6000FBD50720704700000020024010B5FFF767
:105E700073FF00F03FF87C20FFF766FFBDE810409D
:105E8000AFF300800248016941F080010161704771
:105E900000200240F8B50546002000900E46A807F5
:105EA00001D00920F8BD7C20FFF74EFF4FF40057CA
:105EB000384600F02BF80628F4D1074C206940F052
:105EC000010020612E60384600F020F8216943F679
:105ED000FE7211402161F8BD0020024010B5002380
:105EE00003E010C841F823405B1C9342F9DB00201B
:105EF00010BD0000034802494160034941607047FA
:105F00002301674500200240AB89EFCD00B5034671
:105F1000FFF78EFF02E0FFF78BFF5B1E012803D027
:105F2000002B00D10A2000BD002BF4D1FAE70000BD
:105F30002DE9FC5FA0F1006491460F46B4F5003FE7
:105F400002D30220BDE8FC9F4FF0000BFFF7D2FF09
:105F50004FEAD42AC4F38806C6F500744846A14522
:105F600000D804464FF0006000EBCA2005464FF40D
:105F700000723A49FFF7B2FF0020DFF8E08005E049
:105F8000311858F82110491C02D1401CA042F7D307
:105F9000A04233D22846FFF7FFFE062801D0012099
:105FA00022E0002005E057F820103218401C48F885
:105FB0002210A042F7D30025301901904FEACA20E1
:105FC000009014E0009858F8251000EB850606F1C3
:105FD00000663046FFF75EFF062804D1306858F8A7
:105FE0002510884202D00220834632E06D1C0198C1
:105FF000A842E7D8BBF1000F2BD11BE04FEACA2023
:10600000002500EB860813E008EB850606F1006624
:1060100057F825103046FFF73DFF062804D13068B9
:1060200057F82510884202D04FF0020B02E06D1C99
:10603000A542E9D3A1450CD0A9EB040007EB8407E6
:1060400000264FF400740AF1010A8146A04289D863
:1060500087E7FFF717FF584674E70000F0050020B8
:106060002DE9F74FFF4E0C46054684B01E30F16A0D
:106070000290814201D0084609E0E7B2C8B201238C
:106080002E22394601F020FBF06A0A30F06205F159
:1060900032094FF00108484502D0316B042901D183
:1060A00086F81E80A84205DDE1B2C0B201235F225E
:1060B00001F00AFB002000F0BDFD86F8200005F18C
:1060C00014020192E74F143202213C3705F10A0B0A
:1060D0004FF0000A0092142811D2DFE800F00A18ED
:1060E000202F202020404954DAE8D0B26BDAF8F6AD
:1060F000E8B2306B40B9387810B1012804D0BEE066
:106100007878082823D04AE086F81F801BE1306B9E
:106110000028F9D015E0B97808290CD3AFE0387819
:106120000028EDD0012808D17878002805D1B8786A
:10613000082802D2306B0128E6DCA0E0306B002892
:1061400044D039780029DBD0012904D097E0B87811
:106150000728D9D293E079780029DCD08FE038780D
:10616000D0B101284AD17878002847D1306B07E0B8
:10617000306B78B1397879B101293FD17978E9BBB1
:106180000228C8D1C0E7306B20B1397821B101298C
:1061900008D074E0F1771CE178780828B4D0092899
:1061A000B2D06CE0797849BBB978082967D2022867
:1061B000AADC64E0387850B9787840B9B87830B95A
:1061C000F87820B9707F10B186F81DA05DE0E1B2CB
:1061D000E8B20123202201F077FAE1B20BF0FF00D0
:1061E0000123202201F070FA0198E1B2C0B201232C
:1061F000202201F069FAE1B2029800E02CE0C0B27E
:106200000123202201F060FA0098E1B2C0B201231C
:10621000202201F059FAE1B209F0FF0001237E22A9
:1062200001F052FA87F800A087F801A087F802A0D1
:1062300087F803A0C6E90B5A86F81D8086F82180EE
:106240001DE0306B002808DC19D1707F01280BD0CD
:1062500003F01EFA032818D011E0032804DBF16ACA
:10626000494508DA306B04E0306B07F800A0401CA9
:1062700030630428F8DB86F81E8086F81DA0F07FC6
:10628000012860D002287DD0F5E0082007B0BDE8E5
:10629000F08F87F800A087F801A087F802A087F8A0
:1062A00003A086F82180C6E90B5A0220EEE787F8A2
:1062B00000A087F801A087F802A087F803A086F85D
:1062C0002180C6E90B5A0320E0E71EE0FFE7306BB0
:1062D00088B916E007F800A0E1B296F82C00012377
:1062E000302201F0F1F9306BF16A02280BD00A314B
:1062F000401CC6E90B100428ECDB86F82180C6E9B7
:106300000B5A0420C2E71431F2E7306B88B916E06B
:1063100007F800A0E1B296F82C000123302201F02A
:10632000D3F9306BF16A02280BD00A31401CC6E960
:106330000B100428ECDB86F82180C6E90B5A0520F7
:10634000A4E71431F2E786F81DA086F81FA096F89E
:106350002110504661B386F82100E1B2E8B2012372
:10636000202201F0B1F9E1B20BF0FF00012320225D
:1063700001F0AAF90198E1B2C0B20123202201F094
:10638000A3F900E025E00298E1B2C0B20123202287
:1063900001F09AF90098E1B2C0B20123202201F085
:1063A00093F9E1B209F0FF0001237E2201F08CF99C
:1063B000306B96F82020E1B23A54401C306396F8D6
:1063C0002C000123303201F07FF9F06A0A30F062CC
:1063D00051E086F81DA086F81FA096F8210050B362
:1063E00086F821A0E1B2E8B20123202201F06CF985
:1063F000E1B20BF0FF000123202201F065F90198C2
:10640000E1B2C0B20123202201F05EF90298E1B2AC
:10641000C0B20123202201F057F90098E1B2C0B2C6
:106420000123202201F050F9E1B209F0FF0001231D
:106430007E2201F049F987F800A016F8200F787045
:106440003069E1B2801C3061307B0123202201F0F1
:106450003BF9307B32780A300123E1B2C0B23032EE
:1064600002E00000E804002001F02EF956F80C0FBD
:10647000143046F82C09B07F00283FF417AFE1B282
:1064800009F0FF000123202201F01EF93878F97885
:1064900000EB4002C2EBC01001EBC001787864222F
:1064A00010FB02F2B87800EB800002EB40000844D9
:1064B000B063A0F26630DD2802D340F26630B063EC
:1064C0000698B16B01600121B06B04F0ABF8C6F81F
:1064D0003CA0C6F838A0C6E90B5A86F8218086F899
:1064E0001EA00120D2E600002DE9F04FDFF8489110
:1064F000002309F1040A0AF1040B4FF00F0C4FF0CE
:1065000003080BF1040E90E001229A4014427DD062
:106510008D685C00022D04D0122D02D00DB1032D28
:1065200016D11D070AD5466A5D07ED0E0CFA05F770
:10653000BE43CF68AF403743476209E0066A5D0754
:10654000ED0E0CFA05F7BE43CF68AF403743076244
:1065500007680D7A05F00F0608FA04F5AF43A64068
:106560003E430660C7680E79AF4306F00306A640B7
:106570003E43C6608E68B70709D0032E07D0C76AAE
:106580008E78AF4306F00306A6403E43C662846899
:10659000CD78944305F001059D40254385600C7935
:1065A000022C02D0012C04D006E0846A14438462D9
:1065B00002E08469144384618C68012C05D0022CAC
:1065C00003D0112C01D0122C06D14568C4F300145D
:1065D00095439C402C4344608D68EC0024D5D9F849
:1065E00000404E469443ED0300D514433460DAF87E
:1065F000004055468E689443B60300D514432C6082
:10660000DBF800405D4694438E6800E00CE0F60243
:1066100000D514432C60DEF8004075468E68944324
:10662000B60200D514432C605B1C0C8834FA03F2CC
:106630007FF46AAFBDE8F08F000401404FF6FF71B0
:1066400001800021C1700F22C0E902120171817026
:10665000704700002DE9F04786B00025022000F0C9
:10666000A1FE4FF0800A012356A204212B20CDF871
:1066700000A001F035FDFFF7F9FB4FF48067A94654
:10668000524E00E035B9002000F0D4FA0E2814D0A4
:10669000DFF83C8198F800000028F3D04D480088CE
:1066A000B8425FD24CA14E48FEF77CFD68B101258F
:1066B000FFF712FA05214BA051E04CA004F0CEFFE9
:1066C00006B0BDE8F047FFF707BA4EA14448FEF711
:1066D00069FDE0B3CDF80490CDF808905520CDE9E0
:1066E00003904A4E0725002400963046FFF776FBBC
:1066F000012204A93046FFF71BFC394901AA04E036
:106700006D1C1055641CEDB2E4B2485D0A28F7D147
:106710001046FEF769FD0490642005F053FD012248
:1067200004A93B48FFF704FCFFF7D6F9022139A082
:1067300004F094FF012339A204212520CDF800A004
:1067400001F0CEFC4FF47A7005F03CFD00E001E072
:1067500004F0A8FF0025FFF7BFF9062132A004F0DE
:106760007DFF8FE77068411C716004F03DFDA0F56E
:106770007F410446FF390BD0BC4202D37068022827
:106780001BDBE00700D0641C7068022808D009E019
:106790007068401E7060FFF79FF9052125A0DEE7B5
:1067A00004F58064A20825493068FFF7C1FB00B1F9
:1067B000FEE730682044C6E90009FFF78DF904219F
:1067C0001FA0CCE750524F4752414D00DC0500203E
:1067D0000C000020100000204C696E654B445500F1
:1067E000F00D00202563526561647900E4B88DE501
:1067F0008D87E7BAA7EFBC8CE98080E587BA5C6E2D
:1068000000000000456E6466696C65000048000881
:106810000049000825634F4B0000000055504752C7
:106820004144494E470000002563554E4B4E4F579B
:10683000000000002563416761696E000C130020B1
:1068400025634E657874000038B5022000F0AAFD7B
:10685000012322A20221002001F016FC214C607CC1
:1068600000F073FF012320A20221302001F00CFC74
:10687000012320A20221582001F006FCA07B01F098
:10688000C3FC6078802530B9002101231CA2084692
:10689000009501F025FC207E02281DD101231CA2B9
:1068A00003210020009501F01BFC01231EA20421FE
:1068B0000020009501F014FC012321A205210020F5
:1068C000009501F00DFC01B00123BDE83040052129
:1068D00021A2002001F0D8BB38BD00005220424167
:1068E00054000000E804002056554C4F53204D4FF3
:1068F000490000002D2D2D2D2D2D2D205054000050
:106900004C494E4B204641494C4544200000000074
:10691000413A20202020202020202020202020203C
:106920002020202020200000423A2020202020206B
:106930002020202020202020202020202020000097
:106940002020202020202020202020202020202047
:1069500020202020202000004455414C2053544149
:106960004E444259204D4F44452E20202020000007
:10697000F8B5744D802405F148062A7E32B1002016
:106980007149012A6BD0022A68D180E0A87800946E
:10699000E8B1E87808B16DA200E06EA201230321FE
:1069A000422001F09DFB2A7901230421532000F0AD
:1069B000DBFEE87CA8B196ED020B0122032100204A
:1069C00000F0F6FE0094A87D20B164A203E001234C
:1069D00063A2E4E764A201230421382001F080FBD4
:1069E00006E096ED040B01220321002000F0E0FEFA
:1069F00096ED041B96ED020B53EC112B51EC100B92
:106A0000FEF7C4FD05D0002203215C2001F010FA3E
:106A100005E0012355A203215C2001F035FB012391
:106A200053A20521002001F02FFBA87E28B10023EE
:106A300058A205216C2001F027FB012356A2042156
:106A40000020009401F04CFB00945448297A012363
:106A500050F8212004211A2001F042FB5FE0086079
:106A600048608860374B2A7960334DA1364804F07E
:106A700005FE0123344A03210020009401F066FB47
:106A8000012349A20521002001F0FEFA47E0086039
:106A90004860886096F840202A4B41A1A0332A48DC
:106AA00004F0ECFD52270123274A03210D20009713
:106AB00001F016FB96F86020224B39A1C033224822
:106AC00004F0DCFD0123204A04210D20009701F091
:106AD00007FB0094E87E0123C0F10400C1B223A2A9
:106AE000522001F0FDFAE87E0122C01CC1B2522002
:106AF00001F09EF9287D90B15F200090287F01234E
:106B0000C0F10400C1B230A24A2001F0E9FA287FA6
:106B10000123C01CC1B200224A2001F069F9E87CBF
:106B200030B152220221002000F094FDA87C05E043
:106B300054220221002000F08DFD6420BDE8F840C1
:106B400001F094BAE8040020AB120020554846201A
:106B500000000000564846200000000057464D0047
:106B60004348414E00000000464D20002020000018
:106B700054595045202020545246202020204D4F6B
:106B800044202020204348414E20204B45592020BE
:106B9000000000004B4559004C4F530048000020B6
:106BA000253032642D257300544845204E49434B0F
:106BB0004E414D45204F4620594F555220434841A4
:106BC0004E4E454C2E000000200000001FB5012154
:106BD000042002F0E1FC0121082002F0DDFC01218B
:106BE000102002F0D9FC6846FFF728FD0020029033
:106BF0008DF803000121DF208DF80410ADF80000AE
:106C000069460948FFF770FC4CF2F900ADF8000046
:106C100069460648FFF768FC7F20ADF8000069462A
:106C20000348FFF761FC1FBD00080140000C014054
:106C3000001001402DE9F041C94FCA4DCA4ECB4C5E
:106C4000012108B1397001E03878E8B3286810F004
:106C5000080028607ED0286810F01000286079D0E5
:106C6000286810F02000286074D0286810F04000D8
:106C700028606FD0286810F0800028606AD02868EB
:106C800010F00100286065D0306910F020003061FC
:106C900060D0306910F0100030615BD0206810F0D7
:106CA0008000206056D0206810F04000206051D055
:106CB000306910F0010030614CD0206810F01000F5
:106CC000206047D0286800E026E010F400402860EB
:106CD00040D0206810F0080020603BD0306910F0F0
:106CE0000200306136D0306910F0040030617DD090
:106CF000306910F00800306178D0206810F0020090
:106D0000206073D0206810F0040020606ED02068EE
:106D100010F00100206069D0286810F00800286099
:106D200061D0286810F0100028605CD0286810F04E
:106D30002000286057D0286810F04000286052D00A
:106D4000286810F0800028604DD0286810F00100FD
:106D5000286000E04AE046D0306910F02000306141
:106D600041D0306910F0100030613CD0206810F044
:106D70008000206037D0206810F04000206032D0C2
:106D8000306910F0010030612DD0206810F0100043
:106D9000206028D0286810F40040286023D02068A4
:106DA00010F0080020601ED0306910F00200306141
:106DB00019D0306910F00400306114D0306910F03F
:106DC000080030610FD0206810F0020020600AD067
:106DD000206810F00400206005D0206810F0010049
:106DE000206000D039701620BDE8F08101F0D8FA9B
:106DF000052005F0E7F900203870286810F0080138
:106E000029605B4860D0296811F0100129605ED0CC
:106E1000296811F0200129605CD0296811F0400137
:106E200029605AD0296811F08001296058D029685A
:106E300011F00101296056D0316911F02001316152
:106E400057D0316911F01001316158D0216811F02B
:106E50008001216059D0216811F0400121605AD091
:106E6000316911F0010131615BD0216811F010012D
:106E7000216059D0296811F4004129605AD0216855
:106E800011F0080121601DD0316911F0020131615A
:106E900052D0316911F0040131614FD0316911F0E4
:106EA000080131614DD0216811F0020121604BD001
:106EB000216811F0040121604CD0206810F001001D
:106EC000206090D10D208FE7007840BB8CE70078E0
:106ED000F8B91CE00078B0B913E0007868B90AE0AE
:106EE000007820B901E0007808B104207CE7052093
:106EF0007AE7007808B1032076E7062074E7007887
:106F000008B1022070E707206EE7007808B1012081
:106F10006AE7082068E7007808B1002064E70920E4
:106F200062E7007820B901E0007808B10A205BE749
:106F30000B2059E70C2057E70E2055E7007868B979
:106F40000AE0007820B901E0007808B110204BE792
:106F5000112049E7007808B10F2045E7122043E7E8
:106F6000D9050020100C014000100140100801401C
:106F7000D80500202DE9F84F00258024012365A2C3
:106F800003212846009401F0ABF8012367A20421F5
:106F90000020009401F0A4F801236AA2052100203A
:106FA000009401F09DF8DFF8B4A16D4FDFF8B481D3
:106FB0004AF6AA29CAF800900020FFF73BFE0646D1
:106FC000162803D0014668A004F048FB162E17D2FD
:106FD000DFE806F00B0F282C3034383C4044686C56
:106FE000644C48545C605850707401235FA2009454
:106FF00002E0012361A200940521242001F070F831
:10700000386910F0400038615CD06049086810F4BD
:107010008040086056D0002598F8130046460028A6
:1070200063D069E001235AA20094E5E701235CA242
:107030000094E1E701235EA20094DDE7012360A252
:107040000094D9E7012362A20094D5E7012364A24A
:107050000094D1E7012366A20094CDE7012368A242
:107060000094C9E701236AA20094C5E701236CA23A
:107070000094C1E701236EA20094BDE7012370A232
:107080000094B9E7012372A20094B5E7012374A22A
:107090000094B1E7012376A20094ADE7012378A222
:1070A0000094A9E701237AA20094A5E701237CA21A
:1070B0000094A1E701237EA200949DE7012380A212
:1070C000009499E76D1C782D22D0386910F04000AB
:1070D00038614FF00103009405D079A205212420E6
:1070E00000F0FEFF98E772A2F8E7012378A20521DD
:1070F0002420009400F0F4FF707D00287FF45AAF44
:10710000012377A205212420009400F0E9FF51E734
:10711000BDE8F88F20202020204B455920544553AE
:1071200054494E47202020202020000020202020ED
:10713000202020202020202020202020202020204F
:107140002020000056414C55453A20202020202088
:10715000202020202020202020200000003000407F
:1071600000100140E804002025640A0020202020AF
:107170004B455920203020202020000020202020B6
:107180004B4559202031202020200000100C0140C8
:10719000202020204B455920203220202020000094
:1071A000202020204B455920203320202020000083
:1071B000202020204B455920203420202020000072
:1071C000202020204B455920203520202020000061
:1071D000202020204B455920203620202020000050
:1071E000202020204B45592020372020202000003F
:1071F000202020204B45592020382020202000002E
:10720000202020204B45592020392020202000001C
:107210002020204B45592020434C522020200000A4
:107220002020204B45592020454E5420202000008E
:1072300020204B45592043454E5445522020000004
:10724000202020204B455920555020202020000090
:107250002020204B455920444F574E20202000002D
:107260002020204B4559204C45465420202000002A
:1072700020204B45592020524947485420200000E7
:1072800020204B45592020544F4F4C5320200000C4
:10729000204B4559202050524520204144440000B5
:1072A000204B455920205052452020535542000084
:1072B000204B45592020564F4C202041444400008B
:1072C000204B45592020564F4C202053554200005A
:1072D000205055534820544F2054414C4B2000001F
:1072E00020535155454C43485F52454144200000CE
:1072F00070B592B00121022002F042F9012109206B
:1073000002F04AF96846FFF799F90220ADF800004B
:107310000125029003908DF8025069461D48FFF741
:10732000E3F81D4C04A802F043F91C490598884273
:10733000069800D94000B0FBF4F0401EADF82800DC
:107340006420ADF82C000024154EADF82E40ADF8A9
:107350002A400AA9304603F0E7FD6020ADF8380066
:107360003C20ADF83E00ADF83A50ADF840400EA9D3
:10737000304603F0ABFD0821304603F087FD0121C4
:10738000304603F071FD0121304603F089FD12B053
:1073900070BD0000000C0140404B4C00C0FC9B0144
:1073A000000400402DE9F04100252E4630B10128AF
:1073B00006D0022806D003282ED11CE003262BE09D
:1073C0000125FBE7164F174E0025387800B1042041
:1073D000294600F02DF9002404EBC510305C00F0C4
:1073E0007AFF641CE4B2802CF6D36D1CEDB2082D3C
:1073F000EBD3BDE8F081032505260DE029460020EA
:1074000000F016F90024002000F065FF641CE4B2CF
:10741000802CF8D36D1CEDB2B542EFD9E9E700003E
:10742000D805002038DF00081FB50121082002F030
:10743000B3F86846FFF702F943F60440ADF80000E0
:10744000012002908DF8040000208DF803006946A9
:107450000148FFF749F81FBD000C01402DE9F84332
:10746000364F814601463C7800233A22542000F0F2
:107470000BF9334E8025009556F824200023494609
:107480005A2000F02DFE00231A464946742000F0D1
:10749000AFFC4FF00108002001F0FEF90020FFF7DB
:1074A000C9FB1428F7D2DFE800F03A0A0A0A0A0AF0
:1074B0000A0A0B0A3E3E0A100E3E3E3E3E10EAE726
:1074C0000220BDE8F8830020FBE73C700021E220A9
:1074D00000F0B8FE0A2004F075FE38784FF0000185
:1074E00028B1C02000F0AEFE0021A12004E0C82099
:1074F00000F0A8FE0021A02000F0A4FE002125201D
:1075000000F0A0FE0021812000F09CFE002124203C
:1075100000F098FE0220FFF745FF0120D1E700951B
:107520000024326804E028EA0404009556F8242078
:10753000002349465A2000F0D3FDACE7D8050020CF
:107540002000002010B5FFF76FFF2B4C206840F0A3
:1075500004002060206820F4806020600A2004F08D
:1075600031FE206840F4806020600A2004F02AFE8A
:107570000021E22000F066FE0A2004F023FE002134
:10758000A22000F05FFE0021A02000F05BFE0021A1
:10759000C82000F057FE0021252000F053FE0220F5
:1075A00004F010FE0021812000F04CFE0021242078
:1075B00000F048FE022004F005FE0021F82000F053
:1075C00041FE0021084600F03DFE022004F0FAFDD5
:1075D00000212F2000F036FE022004F0F3FD0021F0
:1075E000402000F02FFE0220FFF7DCFE0021BDE866
:1075F0001040AF2000F026BE140C014070B50B4CBB
:107600000546206820F004002060206820F4006017
:107610002060812000F05CFE05F03F0000F058FE85
:10762000206840F00400206070BD0000140C014090
:1076300010B50446B031C8B200F04AFE102000EB8D
:10764000141000F045FE04F00F00BDE8104000F0FB
:107650003FBE000070B50A4B1B780BB1001DC0B2D5
:10766000A2F12005FFF7E4FF0648002400EB8505A2
:10767000285D00F030FE641C042CF9DB70BD0000B6
:10768000D805002062D0000870B51E460C4B1B7850
:107690000BB1001DC0B2A2F12005FFF7C9FF0949D7
:1076A00005EB4500002401EB4005285D0EB9C04301
:1076B000C0B200F010FE641CE4B2062CF5D370BD1D
:1076C000D80500206AD100082DE9F0410746164888
:1076D0001E468846007808B13F1DFFB2A2F1200582
:1076E0003846FFF7A5FF114905EB8500002401EBA3
:1076F0008005285D0EB9C043C0B200F0ECFD641CEB
:107700000A2CF6DB08F10100C1B23846FFF790FF02
:107710000A24285D0EB9C043C0B200F0DCFD641C31
:10772000142CF6DBBDE8F081D8050020A4D30008B6
:107730000A2190FBF1F008B5C3B23C200A46009044
:107740000421222000F066FC08BD14210A3090FBC1
:10775000F1F008B51821C3B20091052202211520CD
:1077600000F058FC08BD00002DE9FC410E4607461C
:1077700000241D4607A101A8019403F07FFF80208B
:1077800000902B4601AA3146384600F0A9FCBDE81E
:10779000FC810000253033640000000008B53C2166
:1077A000C3B2009106220421222000F033FC08BD60
:1077B0002DE9FF41002416460F4605460194029428
:1077C00053EC102B08A101A8039403F057FF05F117
:1077D0003000C0B20090334601AA3946284600F076
:1077E0007FFCBDE8FF81000025332E3466000000D9
:1077F0002DE9F84F884615468146032180278B46A0
:10780000012336A20020009700F06AFC4FF0040A22
:107810005146012331A20020009700F061FC0524AD
:10782000012335A22146002000F02EFC0022214633
:107830002C2000F0C3FA01222146402000F0BEFABD
:10784000E81705EB90708610B006040E0422294656
:10785000404600F087FB0097AC4201D0012300E0D6
:10786000002306EB460109EB01163246594600207B
:1078700000F036FC601C0097A84201D0012300E014
:10788000002306F10C025946442000F029FCA01CFC
:10789000B9460097A84201D0012300E000234045EB
:1078A00002DA06F1180200E010A257465146002005
:1078B00000F016FCE41CCDF80090AC4201D001238E
:1078C00000E00023444502DA06F1240200E007A2AA
:1078D0003946442000F004FCBDE8F88F2020202029
:1078E0002020202020202020202020202020202098
:1078F00020202020000000002020202020205055A3
:1079000053482020204F5220202053455420262029
:10791000454E542020202020000000002DE9FC5F6F
:10792000814603200190564815460F4600784FF0D7
:10793000000808B14FF00408092095FBF0F000EBB7
:10794000C006F4B209222946384600F00BFB4FF07E
:10795000800BCDF800B0AC4201D0012300E0002341
:1079600059F826204046019900F0BAFB601CCDF87A
:1079700000B0A84201D0012300E0002309EB8606F5
:1079800008F1280081467268019900F0A9FBA01C4B
:10799000CDF800B0A84201D0012300E0002308F197
:1079A00050008246B268019900F09AFBE01CCDF8C5
:1079B00000B0A84201D0012300E00023B84201DA60
:1079C000F26800E02FA20421404600F089FB201D50
:1079D000CDF800B0A84201D0012300E00023B84256
:1079E00001DA326900E027A20421484600F078FB62
:1079F000601DCDF800B0A84201D0012300E00023B3
:107A0000B84201DA726900E01EA20421504600F07B
:107A100067FBA01DCDF800B0A84201D0012300E013
:107A20000023B84201DAB26900E016A205214046FF
:107A300000F056FBE01DCDF800B0A84201D00123B4
:107A400000E00023B84201DAF26900E00DA24FF035
:107A500005084146484600F043FB0834CDF800B025
:107A6000AC4201D0012300E00023BC4201DA326ABB
:107A700000E004A24146504600F032FBBDE8FC9F06
:107A8000D805002020202020202000002DE9FC5FC8
:107A9000064603200F460146019092FBF0F000EBF2
:107AA00040001446C5B24FF0780ACDF800A0A542B8
:107AB00001D0012300E000233AA2002000F010FBD7
:107AC00005F10109CDF800A0A14501D0012300E096
:107AD00000234FF0040B594632A2002000F000FBB7
:107AE00005F10208CDF800A0A04501D0012300E077
:107AF000002305212BA2002000F0F2FA03222146E8
:107B0000384600F02FFA022F2EDDCDF800A0A54256
:107B100001D0012300E0002356F825200020019920
:107B200000F0DEFACDF800A0A14501D0012300E06D
:107B30000023B94503DA06EB8500426800E019A28C
:107B40005946002000F0CCFACDF800A0A04501D0A5
:107B5000012300E00023B84503DA06EB85008268C4
:107B600000E010A205210FE0012F14DDCDF800A0E8
:107B70005546E3B232680020019900F0B1FA009551
:107B80003CB1002372685946002000F0A9FABDE814
:107B9000FC9F0123F6E7CDF800A00023326801998D
:107BA000F2E700002020202020202020202020207C
:107BB0002020202020202020202000002DE9FC5F14
:107BC000074602200190D01702EB907080081446FF
:107BD0000D468006060E04222146284600F0C2F912
:107BE000E01704EB907080088006000E4FF07808D4
:107BF00000F1010B07EB800900F1020A032D3DDDC6
:107C0000CDF80080A64201D0012300E0002357F800
:107C100026200020019900F063FA4746CDF8008045
:107C2000A34501D0012300E00023AB4502DAD9F8D7
:107C3000042000E036A20321002000F051FA009752
:107C4000A24501D0012300E00023AA4502DAD9F8B9
:107C5000082000E02EA20421002000F041FAF61CCA
:107C60000097A64201D0012300E00023AE4202DAD1
:107C7000D9F80C2000E026A205213EE0022D2CDDE3
:107C8000CDF80080A64201D0012300E0002357F880
:107C900026200020019900F023FA4646CDF8008006
:107CA000A34501D0012300E00023AB4502DAD9F857
:107CB000042000E016A20321002000F011FA009633
:107CC000A24501D0012300E00023AA4502DAD9F839
:107CD000082000E00EA204210FE0012DCDF8008065
:107CE00012DDE3B23A680020019900F0F9F9CDF80D
:107CF00000803CB100237A680321002000F0F0F9F5
:107D0000BDE8FC9F0123F6E700233A680199F4E7F8
:107D10002020202020202020202020202020202063
:107D200020202020202000002DE9F84F0746DDF814
:107D300028A0984616468B46002552F82A00FDF7E3
:107D400043FA401E00F0FF0900240DE056F824001D
:107D5000FDF73AFAA84204D356F82400FDF734FAA6
:107D60000546641CEDB2E4B24445EFD37819C4B2C1
:107D700001230CA259463846009400F0B1F9A5EB56
:107D8000090000EB4000400000EBD070009407EBCE
:107D9000600056F82A20C0B20023594600F0A0F92E
:107DA000BDE8F88F20202020202020202020202027
:107DB00020202020202020202020000070B5154603
:107DC000094A12780AB1001DC0B2FFF731FC07481A
:107DD000002400EB8505285D00F07DFA641CE4B208
:107DE000042CF8D370BD0000D805002024DB000867
:107DF00070B515460C4A1E4612780AB1001DC0B275
:107E0000FFF716FC094905EB4500002401EB40058E
:107E1000285D0EB9C043C0B200F05DFA641CE4B244
:107E2000062CF5D370BD0000D805002030DB00081B
:107E300070B51546094A12780AB1001DC0B2FFF7A5
:107E4000F7FB0748002400EBC505285D00F043FA66
:107E5000641CE4B2082CF8D370BD0000D8050020E3
:107E600054DB00082DE9F047814618481F468A4632
:107E7000007818B109F1040000F0FF0956014846E6
:107E8000FFF7D6FB3546DFF8488006F1100407E01F
:107E900018F805000FB9C043C0B200F01CFA6D1C01
:107EA000A542F5DB0AF10100C1B24846FFF7C0FB6D
:107EB0004546203606E0285D0FB9C043C0B200F049
:107EC0000AFA641CB442F6DBBDE8F087D80500204E
:107ED00064DB00082DE9F0410646134815460F46BD
:107EE000007808B1361DF6B23046FFF7A1FB05EB6E
:107EF000C5000E4900EB0510002401EB4005285D8C
:107F000000F0E9F9641C192CF9DB7F1CF9B230464A
:107F1000FFF78EFB1924285D00F0DDF9641C322C7C
:107F2000F9DBBDE8F0810000D805002044DD000841
:107F30002DE9F04102260546371D0EE031460020AE
:107F4000FFF776FB002415F8010B00F0C4F9641C60
:107F5000E4B2802CF7D3761CF6B2BE42EED3BDE875
:107F6000F08100002DE9FC4107462748792500787B
:107F700000B17D25B818401E90FBF2F0082801DD05
:107F8000012002E0C31D93FBF0F0002423464FF0D4
:107F9000010C05E00CFA03F626435B1CF4B2DBB2DD
:107FA0008342F7DB172F03DDC80090FBF7F102E0F7
:107FB00091FBF2F1414315A08C40D0E90010CDE9CE
:107FC00000108DF801408DF8044003228DF8024026
:107FD0008DF80540012311467920FFF709FF0123A1
:107FE000042205217920FFF703FF04212846FFF72B
:107FF0001FFB00246D46285D00F06DF9641CE4B29F
:10800000072CF8D3BDE8FC81D8050020000000FF54
:108010000000000070B59342049E24D87343B3FB64
:10802000F2F5114A12780AB1001DC0B2FFF700FB49
:108030003E2000F050F9002404E03E2000F04BF90F
:10804000641CE4B2AC42F8DB0024751B04E022207F
:1080500000F041F9641CE4B2A542F8DCBDE87040D0
:108060003E2000F038B970BDD8050020142190FBE7
:10807000F1F008B5C3B21820009005220321662054
:10808000FFF7C8FF08BD00002DE9F0411646124A6F
:10809000984612780AB1001DC0B2FFF7C9FA002550
:1080A0000E4F13E00024705DB8F1000F07EB800065
:1080B000204410F8800C01D1C043C0B200F00BF98D
:1080C000641CE4B2042CEED36D1CEDB2705D00288C
:1080D000E8D1BDE8F0810000D805002062D000089A
:1080E0002DE9F0471646174ADDF820A09946127888
:1080F0000AB1001DC0B2FFF79BFA0025DFF84880E7
:108100001BE0002405EB450704EB470151450ED861
:10811000705DB9F1000F00EB400108EB4100204415
:1081200010F8C00C01D1C043C0B200F0D4F8641CF8
:10813000E4B2062CE8D36D1CEDB2705D0028E0D1EE
:10814000BDE8F087D80500206AD100082DE9FF5F5F
:1081500083462B48DDF838801E460078154618B156
:108160000BF1040000F0FF0B58460199FFF760FA8D
:108170000027DFF890A019E0002407EB870904EB43
:10818000490141450EDCE85D00EB80010AEB81000E
:108190002044A0F5805090F8800D0EB9C043C0B2C5
:1081A00000F099F8641C0A2CE9DB7F1CE85D0028CC
:1081B000E2D10198401CC1B25846FFF739FA0027B6
:1081C00019E00A2407EB870904EB490141450EDC5D
:1081D000E85D00EB80010AEB81002044A0F58050AF
:1081E00090F8800D0EB9C043C0B200F074F8641C62
:1081F000142CE9DB7F1CE85D0028E2D1BDE8FF9F7D
:10820000D8050020A4D3000870B5582502260446DE
:1082100008280FD2012308A231462846FFF734FF71
:1082200005EB8400C0B202223146FFF7C7FD641E91
:10823000E4B2F5D270BD00002D2D2D2D2D2D2D2D4C
:108240000000000070B5214D0646286820F48050DB
:108250002860286820F004002860286811B140F4E4
:10826000006001E020F4006028600A2003F0B8FFFD
:10827000002406FA04F00006286802D540F40050F5
:1082800001E020F400502860286840F48050286005
:108290000A2003F0A5FF286820F4805028600A20F7
:1082A00003F09EFF641CE4B2082CE2D30A2003F022
:1082B00097FF286840F004002860286840F40060B8
:1082C0002860BDE870400A2003F08ABF140C01400A
:1082D0000021FFF7B7BF0121FFF7B4BF30B593B05E
:1082E000002400940194029401210420039401F0DD
:1082F00047F90121092001F04FF94FF40070ADF862
:1083000010008DF8134003208DF812000220069013
:1083100007908DF8144004A91D48FEF7E5F81D4D9F
:1083200008A801F045F91C49099888420A9800D923
:108330004000B0FBF5F0401EADF838006420ADF809
:108340003C00164DADF83E40ADF83A400EA9284627
:1083500002F0EAFD6021ADF800100120ADF8020046
:108360003220ADF80600ADF808406946284602F014
:10837000ADFD0821284602F089FD0121284602F0C2
:1083800073FD0121284602F08BFD13B030BD0000C3
:10839000000C0140404B4C00C0FC9B010008004019
:1083A000074A00B51068002809D006480078FDF794
:1083B00041FB116800205DF804EB03F01DBE00BD19
:1083C00010050020F3040020F8B5802600250123C5
:1083D00028A2032113200096FFF782FE012329A281
:1083E000042100200096FFF77BFE2C4C3DE001208D
:1083F00000F052FA0020FEF71DFC801E122825D244
:10840000DFE800F009242424242424240D16242643
:108410000B0D160D16260220F8BD0020F8BDE07ADF
:108420000A305F2801D9642009E0E07A0A3006E0CA
:10843000E07A0A2801D5002001E0E07A0A38E072EB
:10844000E07AFDF7F7FAE07AFFF772F9002DCED067
:10845000002502F023F908B10120F8BD012305A28F
:10846000032113200096FFF73BFEE07AFFF760F947
:10847000BDE700004C4947485420494E54454E53EF
:108480004954590020202020202020202020202076
:10849000202020202020202020200000E804002090
:1084A00038B504460320FEF77DFF802100910123AB
:1084B0000EA203212220FFF713FE02230E4A0421FD
:1084C00025200094FFF730FC01230CA20521142085
:1084D000FFF7DAFD002205210A20FFF76FFCBDE857
:1084E0003840012205210F20FFF768BC4C4947485E
:1084F00054204D4F444500003800002020544F20A8
:108500004348414E4745202F20454E5420544F208C
:10851000434F4E540000000038B5234CE57A3DE04F
:10852000012000F0B9F90020FEF784FB10281ED0CE
:1085300008DC022812D00D280AD00E280ED00F28F1
:10854000EED114E0112812D0122810D01328E7D150
:1085500094F8230038B102F0A1F806E02846BDE8FF
:108560003840FDF767BAFFF72FFFB8B138BD94F870
:10857000230028B1002084F8230018B1002002E075
:108580000120F8E72846E07280200090012307A22E
:1085900004210020FFF7A4FDFFF702FF94F8230059
:1085A000FFF77EFFBCE70000E80400202020202029
:1085B00020202020202020202020202020202020BB
:1085C0002020000070B50D462DED108B0446817CF7
:1085D00014F8100F724E303800EBC00202EB00109E
:1085E00001EB8001607800EB800006EB400008445E
:1085F0002870A07A3038FCF78CFF9FED6AFB53ECB3
:108600001F2BFCF7A5FE41EC180B607A3038FCF705
:1086100080FF9FED66EB53EC1E2BFCF799FE41ECBF
:108620001A0B207A3038FCF774FF9FED62DB53ECB5
:108630001D2BFCF78DFE41EC190BE0793038FCF76F
:1086400068FF9FED5ECB53EC1C2BFCF781FE41ECE9
:108650001B0BE0786179303800EBC00202EB0010B0
:1086600001EB8001207900EB800006EB400008441C
:10867000FCF74FFF53EC1B2BFCF7C3FD53EC192BFE
:10868000FCF7BFFD53EC1A2BFCF7BBFD53EC182B8A
:10869000FCF7B7FD41EC100B85ED020BA07C3038E8
:1086A000FCF737FF53EC1F2BFCF752FE41EC1A0B83
:1086B000607C3038FCF72DFF53EC1E2BFCF748FE96
:1086C00041EC180B207C3038FCF723FF53EC1D2BBA
:1086D000FCF73EFE41EC190BE07B3038FCF719FF4C
:1086E00053EC1C2BFCF734FE41EC1B0BE07A617B56
:1086F000303800EBC00202EB001001EB8001207B60
:1087000000EB800006EB40000844FCF702FF53EC4E
:108710001B2BFCF776FD53EC192BFCF772FD53EC89
:10872000182BFCF76EFD53EC1A2BFCF76AFD41EC9D
:10873000100B85ED040BE07C617D303800EBC0024E
:1087400002EB001001EB8001207D00EB800006EBC6
:10875000400008446870A07D217E303800EBC002E4
:1087600002EB001001EB8001E07D00EB800006EBE6
:1087700040000844A870607E3038E870A07E303831
:1087800028710020103C21182A1891F82B1011761E
:10879000401CC0B20728F6D3BDEC108B70BD0000A2
:1087A000F0FDFFFF2D431CEBE2361A3FFCA9F1D28E
:1087B0004D62503F7B14AE47E17A843F9A99999974
:1087C0009999B93F2DE9F0472F4F00252C46787E27
:1087D0002E4608B9FEF738F80120B8760020FFF7DA
:1087E00045FC002329A205216C20FFF74DFCDFF892
:1087F000A080DFF8A090B86A002806DD002003F012
:10880000D5FB10B10020FDF715F903F06FFEFEF760
:10881000AFF8D8F8100010F04000C8F8100019D0D8
:10882000002D07DDB87B0025072803D2B87B401C4C
:10883000B8730126D9F8000010F48040C9F8000090
:108840000AD0002C09DDB87B002430B1B87B401E73
:10885000B87303E06D1CEDE7641C36B10026B87BED
:10886000FFF7D2FC212004F0F9F81E2D01DC1E2CAC
:10887000C1DD0020B876012304A205216C20FFF79A
:1088800003FC0220BDE8F087E80400204B455900B6
:1088900000100140100C014070B5164904464AF61C
:1088A000AA20086003F022FE134DA86A002806DD06
:1088B000002003F07BFB10B10020FDF7BBF80CB1EA
:1088C00002F0AAFD042003F071FB58B1012003F06F
:1088D000DDFF4FF4FA71052003F0A0FB4FF4FA60BE
:1088E00004F0E2F8052003F061FB002801D000202D
:1088F000687070BD00300040E80400202DE9F04FA2
:108900002DED088B83B0F74CE17C00293FD004F1BA
:1089100048054FF0000B012705F108019FEDF29B80
:108920009FEDF38B9FEDF4BB9FEDF5AB01912146DD
:1089300001F1C809CB7E50228026097E05F1180A74
:1089400027EA030C142822D2DFE800F00A2261642F
:108950006AA421AAAF21BAFDFCFBFABAF9F8FDFB23
:10896000A078002813D160780028CFD0132003F01E
:108970008DFF0320FEF716FD0123E3A203210E2045
:108980000096FFF7E3FB04F073F8FDF75DFF47E2A5
:108990000029FCD160780028F9D0A0462046E47870
:1089A000807860B18CB188F803B00123D9A203218B
:1089B00042200096FFF794FB88F804B005E00123FD
:1089C0001A4603213C20FFF713FA0023032118461F
:1089D000019A00F0E7FFD8BB07E095ED020B0F20EE
:1089E00085ED040B04F03AF864E0002C62D098F8AE
:1089F0000200444600285DD0E7700123C5A2032190
:108A000042200096FFF76CFB6420207152E0FFF7D4
:108A100083FD4FE0607800284DD0FDF777F849E0FE
:108A20000029B4D160780028B1D0A0462046E4786F
:108A3000807870B19CB988F803700123B7A2032134
:108A400042200096FFF74CFB642088F8040006E003
:108A50000CE001231A4603213C20FFF7C9F901234A
:108A600003210020019A00F09DFF10B101288ED152
:108A7000B3E7FCB998F802004146D8B181F803B0D9
:108A800081F804B00123A3A2032142200096FFF73E
:108A900027FB0FE0607800280DD002F027FD09E0E9
:108AA00000F0F4F9607E28B1BAE16078002802D0C5
:108AB00000F008FB022003B0BDEC088BBDE8F08F8E
:108AC00060780028F7D002294DD0A078E0B395ED6A
:108AD000020B53EC192B51EC100BFCF76FFD11D866
:108AE000617995ED020B09EBC10090ED001B51EC93
:108AF000100B53EC112BFCF784FB53EC182BFCF7F9
:108B000045FD1AD995ED020B53EC1B2B51EC100BC4
:108B1000FCF754FD7ED8617995ED020B09EBC1009D
:108B200090ED001B51EC100B53EC112BFCF769FB83
:108B300053EC1A2BFCF72AFD6CD806E038E119E15A
:108B400050E15AE169E14FE027E0617995ED020BD0
:108B500009EBC10090ED001B51EC100B53EC112BF5
:108B6000FCF74FFB91E053B195F86000401CC0B298
:108B700085F86000632801D985F8607099E095F860
:108B80004000401CC0B285F84000632801D985F838
:108B9000407099E003F062FF42E111B1012907D072
:108BA0001AE001231A4603213C20FFF721F913E0C4
:108BB000009201235BA203211420FFF7C7FA227958
:108BC00053465AA15B4802F059FD0123594A03213B
:108BD00000200096FFF7BAFA2079632802D22079A4
:108BE000401CC5E02771E1E0607800283FF463AFE6
:108BF0006327022953D0A078F0B360794E4609EB81
:108C0000C00095ED020B90ED001B51EC100B53ECE6
:108C1000112B00E03DE0FCF795FB53EC1B2BFCF720
:108C2000CDFC08D895ED020B53EC1A2B51EC100B30
:108C3000FCF7ACFC1AD9607995ED020B06EBC0008D
:108C400090ED001B51EC100B53EC112BFCF77AFB51
:108C500053EC192BFCF7B2FC1BD895ED020B53EC2F
:108C6000182B51EC100BFCF791FC12D8607906EB35
:108C7000C00090ED001B00E028E095ED020B53ECE6
:108C8000112B51EC100BFCF75DFB41EC100B85ED4B
:108C9000020B95ED020B0F2085ED040B7AE753B123
:108CA00095F86000401E10F0FF0085F860003FF46A
:108CB00063AF0D206EE795F84000401E10F0FF00F6
:108CC00085F840003FF463AF0B2063E711B1012941
:108CD00032D047E001231A4603213C20FFF788F8F1
:108CE00040E00000E80400200000000000006140B7
:108CF0000000000000C06540000000000000794056
:108D00000000000000007E4057414954494E472E64
:108D10002E2E0000564846200000000055484620F0
:108D20000000000020202020202020002530326478
:108D30002D257300AB12002001230092AFF21C021C
:108D400003211420FFF702FA22795346AFF22401DF
:108D5000344802F093FC0123324A0321002000969C
:108D6000FFF7F4F9207901287FF63CAF2079401E07
:108D700020711BE0012953D0607880B302291FD0F5
:108D8000A07848B10020A070A07838B100202071F0
:108D9000A07828B1052204E00120F4E70120F6E7DD
:108DA0000122012303213C20FFF722F80920F1E6EC
:108DB000012935D0607890B1022901D079B903E05A
:108DC00084F81BC02720E5E6A07878B1E07838B1B8
:108DD0000020E070E078642110FB01F0C8E71FE09C
:108DE0000120F6E7A078D8B96078C8B10123202225
:108DF00003213C20FEF748FC12E089B9607878B185
:108E00000123202203213C20FEF73EFC03B0BDECF1
:108E1000088BBDE8F04F01F047BE02F085F949E646
:108E2000002048E6AB12002030B50F23C27801784D
:108E30000125F2B1144A126801F1E02102F4E06266
:108E4000C2F5E062120AC2F10404D3404278A240A3
:108E500084781C401443220181F80024007800F03B
:108E60001F018D404009800000F1E020C0F8005152
:108E700030BD01F01F0085404809800000F1E0206E
:108E8000C0F8805130BD00000CED00E02DE9F84F36
:108E90000026354F344635467E760320FEF782FAAB
:108EA000324602213148FEF7F1FDDFF8C4B0DFF8A9
:108EB000C480DFF8C49001264AF6AA2A0120FFF7F1
:108EC000EBFC0020FDF7B6FEC01F0D280FD2DFE837
:108ED00000F02F0E0E07070E102F070707071000D0
:108EE00026EA0404224602212048FEF7CFFD002D89
:108EF000E4D014B1012C1FD11CE000207876FFF7DC
:108F000061FC0090FFF74CFA53465D4642464946E5
:108F100000E02B60106910F040001061F9D0086883
:108F200010F480400860F4D00098022804D17E76C6
:108F3000BDE8F88FFEF71EF80025224602210B48F7
:108F4000FEF7A4FD5346DC464246494601E0CCF814
:108F50000030106910F040001061F8D0086810F47B
:108F600080400860AAD1F2E7E804002080000020D9
:108F70000030004000100140100C01402DE9F0418C
:108F8000234FFC790025224603212248FEF77EFD6F
:108F900003260020FFF780FC787868B10020FDF7F9
:108FA00049FE08380B2816D2DFE800F006150B0939
:108FB0001517200B0B0909000220BDE8F081641C85
:108FC00000E0A41CB4FBF6F006FB1044224603218B
:108FD0001048FEF75BFD002DDBD04CB12046FCF7BE
:108FE000C9FC10F0FF050CD02846E6E70020E4E7B6
:108FF0000020F87104203872192003F02FFD0120A1
:10900000DBE7224603210348FEF740FDC1E70000ED
:10901000E8040020A80000202DE9F843274F8046EF
:1090200042F21071B86A002390FBF1F0C4B23A2208
:1090300041463C20FEF728FB214E8025009556F83E
:109040002420002341464820FFF74AF800231A460F
:1090500041467420FEF7CCFE0020FFF71DFC0020E7
:10906000FDF7E8FD1328F7D2DFE800F0170A0A0A37
:109070000A0A0A0A0B0A1B1B0A100E1B1B1B1B00E9
:10908000EAE70220BDE8F8830020FBE742F2107017
:1090900014FB00F0B8620120F4E700950024326868
:1090A00004E04CB10024009556F8242000234146EA
:1090B0004820FFF715F8CFE70124F4E7E804002083
:1090C000400000202DE9F041002427460320FEF750
:1090D00069F9012348A202210020FEF7D5FF2246AC
:1090E00007214E48FEF7D2FCDFF83481072603251E
:1090F00098F8010000287DD00020FFF7CDFB00206C
:10910000FDF798FD08380C2813D2DFE800F0731241
:1091100008061214730808060614641C00E0A41D57
:10912000B4FBF6F006FB1044224607213B48FEF74D
:10913000ADFC002FDCD00020072C15D2DFE804F0B6
:10914000040C232B333B4300B4FBF5F005FB10402C
:10915000C01CFFF713FF06E0B4FBF5F005FB104061
:10916000C01C00F0AFF8C0B2022843D0002722464E
:1091700007212A48FEF78AFC4AF6AA23DFF8A4C092
:1091800029492A4A2AE0B4FBF5F005FB1040C01C2F
:1091900000F0ECF8E7E7B4FBF5F005FB1040C01C6D
:1091A00000F06EF9DFE7B4FBF5F005FB1040C01CE2
:1091B000FFF732FFD7E7B4FBF5F005FB1040C01C0A
:1091C00000F036F8CFE7B4FBF5F005FB1040C01C0B
:1091D00000F022F9C7E70DE0CCF80030086910F084
:1091E00040000861F8D0106810F4804010607FF4EF
:1091F0007FAFF1E7BDE8F08150474D2020202020CF
:10920000202020202020202020202020202020205E
:1092100020202020202020200000000064000020CA
:10922000E80400200030004000100140100C014014
:109230002DE9F843214F80467C7B014600233A22EA
:109240003C20FEF721FA1E4E8025009556F824207A
:10925000002341464220FEF743FF00231A464146C1
:109260007420FEF7C5FD0020FFF716FB0020FDF778
:10927000E1FC08380B28F6D2DFE800F007060C0CFA
:1092800006190A0C0C0C0C00EDE70220BDE8F8836F
:109290000020FBE74CB10024009556F82420002361
:1092A00041464220FEF71CFFDDE70124F4E77C7312
:1092B0001F2003F0D3FB0120E8E70000E8040020B2
:1092C00020000020F8B5264D0646AC79802000909D
:1092D000002324A231461E20FEF702FF002304F1E2
:1092E000300231464220FEF7CFF900231A463146BC
:1092F0007420FEF77DFD0020FFF7CEFA0020FDF779
:1093000099FC1328F7D2DFE800F0150A0A0A0A0AC6
:109310000A0A0B0A19220A0F0D1922192200EAE77C
:109320000220F8BD0020F8BDAC71172003F096FBB9
:109330000120F8BD00242346302203E0072CDAD8B0
:10934000641C07E031464220FEF79EF9D3E7002C6B
:10935000D1D0641EE4B2002304F13002F2E7000031
:10936000E80400203A4C4556454C00002DE9F843EE
:10937000274F80467C79014600233A222420FEF7BD
:1093800083F980250095234E78790023414656F8CD
:1093900020202A20FEF7A4FE00231A46414674200E
:1093A000FEF726FD0020FFF777FA0020FDF742FCCC
:1093B0001328F7D2DFE800F0160A0A0A0A0A0A0A96
:1093C0000B0A1A240A100E1A241A2400EAE70220B3
:1093D000BDE8F8830020FBE77C71152003F03EFB1D
:1093E0000120F5E700950024326803E0022CD9D271
:1093F000641C08E0002341462A20FEF771FED1E7F5
:10940000002CCFD0641EE4B2009556F82420F1E77A
:10941000E80400205400002070B5002422460221F8
:109420001548FEF733FB154D0020FFF735FA687835
:1094300070B10020FDF7FEFB08380B28F4D2DFE8FE
:1094400000F007060B0B0610090B0B0B0B00EBE7EC
:10945000022070BD002070BD0CB1002406E0012484
:1094600004E0204601F006FE0228F4D02246022144
:109470000148FEF70BFBD7E7A0000020E80400201E
:10948000F8B5384E0746B47A80250146002336A247
:109490001E200095FEF724FE002304F13002394619
:1094A0002420FEF7F1F834B9002332A239461E20F9
:1094B0000095FEF715FE00231A4639467420FEF784
:1094C00097FC0020FFF7E8F90020FDF7B3FB132815
:1094D000F7D2DFE800F0150A0A0A0A0A0A0A0B0A9C
:1094E000172A0A0F0D172A172A00EAE70220F8BDEB
:1094F0000020F8BDB4721D2003F0B0FA0120F8BDC1
:10950000002426E0092CDCD2641CE4B2002316A25D
:1095100039461E200095FEF7E3FD002304F13002DA
:1095200039462420FEF7B0F8CBE7002CC9D0641EE2
:10953000E4B200230CA239461E200095FEF7D0FDB0
:10954000002304F1300239462420FEF79DF8002C58
:10955000B7D1002307A239461E200095FEF7C0FDB3
:10956000AFE70000E80400203A204D494E5554452D
:10957000000000003A4E4F20544F542000000000DD
:10958000044A0029D16901D0014300E08143D1613F
:109590007047000000100240044A0029916901D080
:1095A000014300E0814391617047000000100240D8
:1095B00070B5324B5968324A11405A685C6A02F4FD
:1095C0008032C4F302140D0101D4022501E06FF4CE
:1095D000F77505EB91411AB15A68920305D502E07F
:1095E0001A6CD20701D0274A00E0274A51431A6C6F
:1095F000920700D549085A68244D12F00C0206D093
:10960000214E042A07D0082A05D00C2A05D055F887
:109610002420026002E0066000E001605A680F2426
:1096200004EA1212194C403CA55C0268EA40426010
:109630005D68072606EA1525655D22FA05F5856051
:109640005D6806EAD525645D22FA04F4C460DC6A2C
:109650000E4D04F00F04303D2C5DB2FBF4F242617C
:10966000DA6A1F2303EA121202F00F0205F1100357
:1096700033F81220B1FBF2F1016170BD001002401D
:1096800000003C0800127A000024F4006CCB0008B3
:10969000F8B5334FBC7D01231A4603216820FEF73D
:1096A000A7FB802500952F4EB87D56F8202019E0A5
:1096B0000020FFF7F1F80020FDF7BCFAC01E1128CA
:1096C000F6D2DFE800F04A0909090909090A0A097E
:1096D000173D0A0A0A0A1700EAE74CB10024009570
:1096E00056F82420002303216E20FEF7F9FCDFE763
:1096F0000124F4E70123202203216820FDF7C4FFA1
:10970000009556F82420012303216E20FEF7E8FC83
:10971000B87D844201D10020F8BDBC75252003F03E
:109720009DF9F97D78204FF00103009009B10EA258
:1097300000E010A203210020FEF7D2FC0120F8BDBA
:109740000123202203216820FDF79EFF00950123BD
:10975000032156F824206E20EEE70320F8BD000018
:10976000E8040020200000205452554520202020ED
:109770002020000046414C5345202020202000009E
:109780002DE9FE4F764F4FF0000897F804B0CDF862
:109790000480CDF80880BC780126FD7807F14809DF
:1097A000484699F8001089F8201099F8011089F8B6
:1097B000211099F8021089F8221099F8031089F8FD
:1097C000231099F8041089F8241099F8051089F8E5
:1097D000251099ED020B89ED0A0B99ED040B89ED2B
:1097E0000C0B017E80F83810417E80F83910817EA4
:1097F00080F83A10C17E80F83B10017F80F83C1061
:10980000417F80F83D10817F80F83E10C17F80F855
:109810003F100123002204217420FEF7E9FA4FF0E3
:10982000800A0120FFF738F84D4F787880B100208A
:10983000FDF700FA142845D2DFE800F00D44444457
:109840004444444444443E37442F103E1B26372FA3
:109850000220BDE8FE8F74BB012011E040490A7967
:1098600058465A4503D00871032003F0F7F800204A
:10987000EFE71CB100242CB13E7908E00124FAE79F
:10988000387122E03E7120E0ACB125B100256420A2
:1098900015FB00F0F4E70125F9E731488470C57045
:1098A000092003F0DBF80120D3E73879012809D932
:1098B0003879401EE4E705E03879632802D2387928
:1098C000401CDDE7B8F1000FABD04FF000080320DB
:1098D00003F0C4F8CDF800A099F8040008B121A263
:1098E00000E022A2012303215620FEF7F9FBCDF868
:1098F00000A099F8030008B11EA200E01FA20123F6
:1099000003211820FEF7ECFB24B11EA101A8FBF7F0
:1099100062FC04E03A791EA101A801F0AFFE5746AF
:1099200001231EA204211220CDF800A0FEF7D8FBCF
:1099300000231AA2042144200097FEF7D1FB084A15
:1099400001236032042112200097FEF7C9FB002397
:1099500001AA042144200097FEF7C2FB61E7000042
:10996000E804002057494445000000004E4152528F
:10997000000000004C4F57200000000048494748B5
:109980000000000046524551202020200000000029
:1099900043482D2530326420200000002020202064
:1099A000202020002DE9FF4F80462DED0E8B87B043
:1099B000801D4FF0000B08F1300A1E460F46C5B25D
:1099C000CDE9030B01240AF0FF09CDF804B0C9B2B8
:1099D00008F0FF002346FBA2CDF808B0CDF80090B8
:1099E000FEF77EFBF9B2012300224846FEF700FA9B
:1099F0000EB1042000E00120C2B28DF80400F9B2DB
:109A000008F0FF0001233032FDF73EFE08F112009E
:109A100005900120FEF740FF0598854209D1F9B273
:109A200001232E222846FDF72FFEAD1D641CEDB24A
:109A3000E4B2454507DD554505DAF9B201235F2259
:109A40002846FDF721FE554501D0082C01D14FF0E5
:109A5000010B0020FDF7EEF88146142812D2DFE852
:109A600000F00A22223E5C4E74747D82CFCFCFCDAF
:109A700092CFCFCFCFCD36B19DF80500082801D8C1
:109A8000002C6FD1BCE0012C0CD99DF80500011F02
:109A9000042967D3032853D0072803D19DF8060073
:109AA00004285FD9ACE0BEBB022C09D00ED99DF8CA
:109AB0000500A0F10401032954D3032807D05FE077
:109AC0009DF80500032801D908284BD398E09DF89C
:109AD0000600052846D893E09DF806000CE0DEB9A4
:109AE000012C3FD0022C03D008D99DF8050010E0CE
:109AF0009DF80500A0F10400042833D380E05EB98E
:109B0000012C7FD09DF80500011F03297AD3022C78
:109B100076D9032814D033E021E016B1012C71D995
:109B200022E0012C6ED09DF80500011F032969D3A6
:109B3000072802D0032803D062E0022C62D05FE045
:109B40009DF8060006285DD25AE046B9012C59D08E
:109B50009DF80500C11E042954D30FE04EB1012C1D
:109B600050D001E04EE026B19DF80500072849D904
:109B700046E09DF80500C11E032943D9022C3FD9B8
:109B80000728A9D03CE0039885420FD11798F9B275
:109B9000012290ED000B08F0FF00FDF709FE002008
:109BA00007B0BDEC0E8B04B0BDE8F08F78200090BC
:109BB000F9B208F0FF00012385A2FEF791FA002018
:109BC00001AA00E01055641EE4B2FBD246B10420A5
:109BD0008DF804000123F9B208F0FF00342207E0F9
:109BE00001208DF80400F9B208F0FF0001233122B2
:109BF000FDF74AFD03980124C5B201E04FF0010BC7
:109C0000049878B1002001A9049001F80490641C24
:109C1000E4B2F9B2012309F130022846FDF734FD20
:109C2000AD1DEDB2BBF1000F3FF4F3AE08F136000D
:109C3000C0B20090F9B20AF0FF00012363A2FEF760
:109C40004FFA554506DB072C06D201A9002008551E
:109C5000641CE4B2082CF8D39FED60EB16B14FF40E
:109C6000C87000E06420FBF765FC9DF80BA041EC98
:109C70001D0B5046FBF75EFC9FED5A1B53EC112B5E
:109C8000FBF766FB9DF80A9041EC1C0B4846FBF77E
:109C900051FC9FED561B53EC112BFBF759FB9DF824
:109CA000096041EC1B0B3046FBF744FC9FED511B58
:109CB00053EC112BFBF74CFB9DF8085041EC1A0BB1
:109CC0002846FBF737FC9FED4D1B53EC112BFBF7A0
:109CD0003FFB9DF8064041EC190B2046FBF72AFCA0
:109CE00041EC180B9DF80500834600EB8000400016
:109CF000FBF720FC53EC1D2BFBF783FA53EC182BDE
:109D0000FBF77FFA53EC192BFBF77BFA53EC1A2B7A
:109D1000FBF777FA53EC1B2BFBF773FA53EC1C2B76
:109D2000FBF76FFA41EC180B9DF80410354840F62C
:109D3000354241431BFB02F001EB401040F2712120
:109D400014FB01F100EB011005EB4501C1EBC5115E
:109D500000EBC10006EBC60101EB061100EB81012F
:109D600009EB890001EB400101EB0A0453EC1E2BC7
:109D700051EC180BFBF70AFC04D2B0EE4E8AF0EE61
:109D80006E8A5CE09FED200B51EC180B53EC102B0E
:109D9000FBF714FC08D251EC180B9FED1D0B53EC94
:109DA000102BFBF7F3FB08D351EC180B9FED1A0BAC
:109DB00053EC102BFBF702FC32D2179890ED008B7E
:109DC0003DE0000020202020202020202000000056
:109DD0002020202020202020000000000000000083
:109DE000000061402D431CEBE2361A3FFCA9F1D282
:109DF0004D62503F7B14AE47E17A843F9A9999991E
:109E00009999B93F40420F000000000000C0654032
:109E100000000000000079400000000000007E40CB
:109E2000204602F075F9002809DDFBF772FB9FED73
:109E30000B1B53EC112BFBF7FDFA41EC180B179899
:109E4000F9B2002280ED008B08F0FF00B0EE480A66
:109E5000F0EE680AFDF7ACFC0120A1E6000000006E
:109E60000088C340F8B5164E34790123002203213F
:109E70007420FDF7BDFF012580270120FEF70CFDB2
:109E80000020FCF7D7FE0A380928F6D2DFE800F0F8
:109E90000B0B0508060B0B0B0B00EEE70020F8BDC3
:109EA00034710120F8BD35EA0404009701D005A201
:109EB00000E006A2002303215620FEF711F9DCE79B
:109EC0003005002057494445000000004E415252E1
:109ED000000000002DE9F0472DED028B9FED7C8BFB
:109EE0007D4E4FF00008474696ED020B444653EC7A
:109EF000182B51EC100BFBF761FB01D2012500E0A0
:109F0000002500F019F9224608217448FDF770FC7D
:109F1000DFF8C491A9F1480999F8010098B101202E
:109F2000FEF7BAFC0020FCF785FE142865D2DFE8B6
:109F300000F0640F64642664646464645A5C643F83
:109F4000565A6E705C3FBDEC028B0220BDE8F08774
:109F500014B1022C09D050E096ED020B53EC182BF3
:109F600051EC100BFBF72AFB37E096ED020B53EC9C
:109F7000182B51EC100BFBF721FB2ED23DE014B156
:109F8000022C09D039E096ED020B53EC182B51EC62
:109F9000100BFBF713FB1EE096ED020B9FED501B21
:109FA00051EC100B53EC112BFBF7F0FA13D224E019
:109FB000062C03D034B1022C04D020E099F8020022
:109FC000D8B91CE096ED020B53EC182B51EC100B9A
:109FD000FBF7F4FA01D2012511E000250FE042A0C1
:109FE00001F03CFBAFE7A41D00E0A41C04F0070453
:109FF000224608213948FDF7FBFB002F8CD0082CA6
:10A000003FD2DFE804F00820264F55595D60E41D7B
:10A01000ECE7641CEAE74FF001030DB134A200E065
:10A020003CA205210020FEF72FF82B4A2B460832D0
:10A0300003210C20FFF7B6FC01281DD196ED020B81
:10A0400086ED040B20E07178032000F031FA707087
:10A050001AE04FF001030DB125A200E02DA2052169
:10A060000020FEF711F81C4A2B46103204210C2068
:10A07000FFF798FC012807D0224608211748FDF772
:10A08000B7FBB8F1000F0BD04FF000080F2002F023
:10A09000E5FC00F051F8224608211048FDF7A8FB26
:10A0A000002739E7B178042000F002FAB070EBE73E
:10A0B000F07800F085FAE7E73079FFF7D3FEE3E7C1
:10A0C00000F0E0F8E0E7FFF75BFB00F035F8D3E7DE
:10A0D0000000000000C0654030050020880400201A
:10A0E000000000000000794052657475726E0A002D
:10A0F0002020465245205345543A3430302D3438D0
:10A10000304D485A2C434C52204F5220454E54203B
:10A11000000000002020465245205345543A313378
:10A12000362D3137344D485A2C434C52204F522053
:10A13000454E5420000000002DE9F041334E34A17B
:10A14000354896ED020B53EC102B01F097FA70781E
:10A15000324C33A154F820202F480C3001F08EFAF5
:10A1600096ED040B2C4853EC102B2EA1183001F067
:10A1700085FAB0782AA154F820202748243001F02D
:10A180007DFA254C4320202284F848004E2084F894
:10A1900049003A2084F84A0004F14B0007210746A1
:10A1A000FAF7EEFFA6F14805A97804F1540061B171
:10A1B0001EA101F063FAE87808B11FA200E020A216
:10A1C00017A1384601F05AFA0CE02A791EA101F0D5
:10A1D00055FA286E44F84B0FB5F86400A08095F846
:10A1E0006600A071F07808B11AA100E01CA10A482D
:10A1F000303001F043FA307908B11CA100E01EA113
:10A20000BDE8F04104483C3001F038BA3005002088
:10A21000523A25332E34660088040020B400002012
:10A2200025730000543A25332E34660046524551BA
:10A23000202020200000000055484620200000007B
:10A24000564846202000000043482D253032642027
:10A25000202000005057523A4C4F57202020200019
:10A260005057523A484947482020000042573A5731
:10A27000494445200000000042573A4E41525220C6
:10A28000000000002DE9FE4F002001900446074623
:10A2900006460546029058484FF0160A4FF0010B4B
:10A2A000807880BB54490020483101AA0B181B7EDE
:10A2B0001354401CC0B290460728F7D3802000906A
:10A2C00001234EA204210020FDF70AFF01230022F2
:10A2D00004213C20FDF78CFD4FF012090120FEF710
:10A2E000DBFA0020FCF7A6FC14283CD2DFE800F0E3
:10A2F0001D1D1D1D1D1D1D1D1D1D68723B160A689F
:10A300005C62721615B10020BDE8FE8F2022072185
:10A3100001A8FAF735FF0024012527E0364801A9F6
:10A320006030FAF758FF0120EEE7761C0922F1B2FF
:10A33000B1FBF2F3002502FB1316504500D117B113
:10A340000026824637462E4900EBC0000844825D55
:10A3500008F8042004EB440109EB4100C0B20023DB
:10A360000421FDF791F9BBF1000FB7D08020012740
:10A3700000904FF0000B3B4622A204211220FDF773
:10A38000AFFE80200090012301AA04211220FDF7D6
:10A39000A7FE04EB440118F8042009EB4100C0B209
:10A3A0004FF000031ABB21E0641EE4B2062CDDD995
:10A3B0000624DBE7641CE4B2062CD7D90024D5E7D9
:10A3C00018F804005F211F3890FBF1F201FB120026
:10A3D000203006E018F8040001465E307F2800D9DE
:10A3E000481EC2B208F804200025B3E72022042149
:10A3F000FDF74AF972E70000E8040020434E3A00F6
:10A4000008CE0008202020202020200070B504461F
:10A4100005460320FCF7C6FF42E00120FEF73CFAA8
:10A420000020FCF707FC0E281BD00ADC60B30A28CA
:10A430001BD00B280DD00D28EFD17A2C13D3002080
:10A4400070BD0F2811D0102822D0112824D0122836
:10A45000E3D1772C16D0782C16D0792C16D0E41CAA
:10A460001EE0284670BD204670BD2CB1012C05D0E1
:10A47000022C05D0E41E13E0782411E079240FE0CB
:10A4800077240DE002240BE0002409E0012407E01A
:10A49000012CF3D4641E03E0601C7928F4DC641CF6
:10A4A00022467A210148FDF739FAB6E79C020020DE
:10A4B0002DE9F8430C4688460546C1B20123002227
:10A4C0007420FDF795FC012330A205210020FDF743
:10A4D000DBFD002205213020FDF770FC0122052163
:10A4E0004420FDF76BFC324F80260120FEF7D4F9A3
:10A4F0000020FCF79FFB1328F7D2DFE800F00B0ADF
:10A500000A0A0A420A0A0A0A2F2B0A1F162F2B2FA1
:10A510002B00EAE70024E9B2012326A2442000969A
:10A52000FDF7DEFD00963A6825E0E9B2012320221E
:10A530007420FDF7A9F84046BDE8F883E9B201238D
:10A5400020227420FDF7A0F87A2C01D30020F3E735
:10A550002046F1E7002C04DD641E02E0792C00DACD
:10A56000641CE9B2012313A244200096FDF7B8FD54
:10A57000009657F82420E9B200234420FDF7B0FDEF
:10A58000B3E72046BDE8F843FFF740BF20435443FC
:10A590005353205345542C2020204F522020202C50
:10A5A000434C52204F5220454E54202000000000C2
:10A5B000B4000020202020202020202000000000C7
:10A5C000F8B5164DEC780123002203213C20FDF75D
:10A5D0000FFC134F80260120FEF75EF90020FCF7E8
:10A5E00029FB0A380928F6D2DFE800F00B0B050832
:10A5F000060B0B0B0B00EEE70020F8BDEC70012002
:10A60000F8BD4CB10024009657F824200023032104
:10A610001820FDF765FDDEE70124F4E73005002092
:10A620003000002070B504464FF47A7094FBF0F0CF
:10A630000A2590FBF5F105FB1102012304210020FE
:10A640003032FDF741F8642094FBF0F090FBF5F117
:10A6500005FB1102012304210A203032FDF734F8F2
:10A6600094FBF5F090FBF5F105FB110201230421A9
:10A6700014203032FDF728F801232E2204211E2059
:10A68000FDF722F894FBF5F005FB1042BDE87040A1
:10A690000123042128203032FDF716B838B5802078
:10A6A000009001231EA203211320FDF719FD204C69
:10A6B00032E00120FEF7F0F80020FCF7BBFA801E24
:10A6C0001228F6D2DFE800F00A0909090909090988
:10A6D0001019090E0C101910190EEAE7022038BDE6
:10A6E000002038BD012038BD207B401C062801D940
:10A6F000062009E0207B401C06E0207B012801D5D4
:10A70000002001E0207B401E2073207B00EB8000B6
:10A710001530C0B2FCF772FF207BFDF73FF8C8E7A9
:10A7200053435245454E20434F4E545241535400DB
:10A73000E804002025480021026842F480320260CB
:10A740004FF400530268491CC2F340420AB99942CF
:10A75000F8D10168C1F3404199B31D490A6822F05C
:10A7600003020A600A680A6041684160416841600A
:10A77000416841F4806141604168164A114041607E
:10A78000016C21F001010164416841F48032016CE7
:10A7900042F4202242600164016841F0807101604E
:10A7A00001688901FCD5416821F0030141604168DD
:10A7B00041F0030141604168C1F381010329FAD1ED
:10A7C0007047FFE7054904480860F9E700100240B8
:10A7D00000200240FFFFC0F700093D0000000020FC
:10A7E0002DE9F0415A4C257900232A4604215320B3
:10A7F000FCF7BAFF04F14807387887F8200078782A
:10A8000087F82100B87887F82200F87887F82300C5
:10A81000387987F82400787987F8250097ED020BBE
:10A8200087ED0A0B97ED040B87ED0C0B387E87F84C
:10A830003800787E87F83900B87E87F83A00F87ECD
:10A8400087F83B00387F87F83C00787F87F83D0029
:10A85000B87F87F83E00F87F87F83F000126012087
:10A86000FEF71AF8607868B10020FCF7E3F90E28CB
:10A8700030D00ADCD0B10A281AD00B281FD00D28FE
:10A88000EDD108E00220BDE8F0810F2810D0122899
:10A8900015D01328E3D10123202203213C20FCF70B
:10A8A000F3FE0F2002F0DAF80120ECE726710DE04C
:10A8B0002079401C207120796328F7D806E02079A0
:10A8C000401E2071207908B9632020712079FBF7A0
:10A8D000EBF8C4E72079A84231D097F8200038700F
:10A8E00097F82100787097F82200B87097F8230045
:10A8F000F87097F82400387197F82500787197ED73
:10A900000A0B87ED020B97ED0C0B87ED040B97F804
:10A910003800387697F83900787697F83A00B876A4
:10A9200097F83B00F87697F83C00387797F83D00A9
:10A93000787797F83E00B87797F83F00F8770123CB
:10A94000202203213C20FCF79FFE00209BE7000013
:10A95000E80400202DE9F843DFF8908098F81640CD
:10A9600098F816708025224E009513E00120FDF71F
:10A9700093FF0020FCF75EF90A380A28F6D2DFE8D8
:10A9800000F0060605132B0606060613EEE74CB18B
:10A990000024009556F82420002304213820FDF7D8
:10A9A0009FFBE3E70124F4E7009556F824200123F8
:10A9B00004213820FDF794FB98F816004546A04284
:10A9C00007D0AC75252002F049F8A87D08B1FBF747
:10A9D0009DF80120BDE8F883009556F82720002354
:10A9E00004213820FDF77CFB0020F3E7E804002079
:10A9F000280000202DE9F843294F3C7A97F8089069
:10AA0000284E8025009556F82420002304211A2082
:10AA1000FDF766FBB846032798F8010080B10120D6
:10AA2000FDF73AFF0020FCF705F90A380A28F3D2AF
:10AA3000DFE800F0090B052319090B090B23EBE7ED
:10AA40000220BDE8F883641C00E0A41CB4FBF7F00E
:10AA500007FB1044009556F82420002304211A20F7
:10AA6000FDF73EFBD8E7009556F829200123042185
:10AA70001A20FDF735FB0020E3E7009556F8242067
:10AA8000012304211A20FDF72BFB04EB4400401C9A
:10AA900088F80800192001F0E1FF0120D1E700004B
:10AAA000E8040020480000202DE9F0410024474F31
:10AAB000012625464FF005087878002862D001204D
:10AAC000FDF7EAFE0020FCF7B5F80A3809280ED297
:10AAD000DFE800F01F1C0D0C051F1C1F1C000123CC
